:020000040000FA
:100000000C94AF040C94D7040C94D7040C94D7042C
:100010000C94D7040C94D7040C94D7040C94D704F4
:100020000C94D7040C94D7040C94D7040C940E2D84
:100030000C94D7040C94DC2C0C94B62C0C94D704A0
:100040000C94D7040C94D7040C94D7040C94582D1A
:100050000C94D7043F202D2048656C700078202D2B
:1000600020457869740074202D2041646A7573748A
:10007000205254430063202D20546F67676C652025
:10008000434C4B204D6F64650061202D20546F67F9
:10009000676C65204155544F45584543006C202DF1
:1000A000204C69737420426F6F74204D6F6465003B
:1000B00062202D204368616E676520426F6F742057
:1000C0004D6F646500253032752F253032752F2530
:1000D00030347520253032753A253032753A253066
:1000E0003275004445563A2044533233313320525E
:1000F000544320446174652F54696D65202D2000A0
:100100004445563A2044533233313320525443202D
:10011000446174652F54696D65202D204661696CBA
:100120007572652120436F6D70696C656420446150
:1001300074652F54696D65206973206170706C69F6
:1001400065642E004445563A2044533233313320FF
:1001500052544320446174652F54696D65202D20ED
:100160004E6F7420466F756E642E004445563A20DB
:10017000436F6D70696C656420446174652F5469C8
:100180006D652020202D200028554E4B4E4F574E98
:1001900029002846525F4E4F5F46494C45535953FC
:1001A00054454D29002846525F4E4F545F454E41FD
:1001B000424C454429002846525F4E4F545F4F50F1
:1001C000454E454429002846525F4E4F5F46494CF4
:1001D0004529002846525F4E4F545F5245414459CD
:1001E00029002846525F4449534B5F45525229002B
:1001F0002846525F4F4B29004445563A205344202D
:100200006572726F72202575200052454144004F7F
:1002100050454E004D4F554E5400206F6E2000202B
:100220002D2046696C65203A2025730A0044455606
:100230003A20436865636B20534420616E642070EC
:10024000726573732061206B657920746F2072650D
:1002500070656174004453784E79792E44534B0095
:1002600020656E61626C6564002064697361626C14
:10027000656400494F533A2073657269616C457635
:10028000656E74202D00202F204469736B2D5365FB
:1002900074202D2025640A00494F533A20465720E8
:1002A0002D20257300494F533A204657202D2025F5
:1002B00073202825732900494F533A204D697373E1
:1002C000696E6720424F4F544D4F78782E43464712
:1002D0002066696C6573210020202020202E2E2EA0
:1002E00020446F6E652E004D42433A204C6F61648E
:1002F000696E6720257340307825303458202E2EC3
:100300002E0A000A57726F6E672056616C75652061
:1003100025642E2049742073686F756C64206265B3
:100320002030203C3D20626F6F745F6D6F646520EC
:100330003C3D2025640A000A4D42433A20424F4F7B
:1003400054204D4F4445205B302D25645D00202D09
:100350003E205365636F6E64206F7574206F662056
:1003600072616E67652C206974206D7573742062EC
:1003700065206265747765656E203020616E64204B
:10038000353900202D3E204D696E757465206F75DE
:1003900074206F662072616E67652C206974206D11
:1003A000757374206265206265747765656E2030B0
:1003B00020616E6420353900202D3E20486F757213
:1003C000206F7574206F662072616E67652C2069DE
:1003D00074206D757374206265206265747765653D
:1003E0006E203020616E6420323300202D3E204686
:1003F00065627275617279206F6E6C7920686173C5
:100400002032382064617973206F7574206F662004
:100410006C656170207965617200202D3E20466513
:10042000627275617279206F6E6C792068617320D9
:100430003239206461797320696E206C65617020A7
:100440007965617200202D3E2074686973206D6F9C
:100450006E7468206F6E6C79206861732033302071
:100460006461797300202D3E20446179206F75749A
:10047000206F662072616E67652C206974206D752F
:100480007374206265206265747765656E20312023
:10049000616E6420333100202D3E204D6F6E7468F4
:1004A000206F7574206F662072616E67652C2069FD
:1004B00074206D757374206265206265747765655C
:1004C0006E203120616E6420313200202D3E205993
:1004D000656172206F7574206F662072616E67654A
:1004E0002C206974206D75737420626520626574B8
:1004F0007765656E203139373020616E6420393977
:10050000393900202D3E205365636F6E6420666983
:10051000656C6420666F726D6174206572726F72B3
:1005200000202D3E204D696E757465206669656CEE
:100530006420666F726D6174206572726F72002044
:100540002D3E20486F7572206669656C6420666F69
:10055000726D6174206572726F7200202D3E2044AE
:100560006179206669656C6420666F726D617420C4
:100570006572726F7200202D3E204D6F6E74682080
:100580006669656C6420666F726D61742065727255
:100590006F7200202D3E2059656172206669656C7E
:1005A0006420666F726D6174206572726F720020D4
:1005B0002D3E204572726F72206F662064656C69F3
:1005C0006D6974657220273A2720696E2074696D01
:1005D0006500202D3E204572726F72206F66206488
:1005E000656C696D697465722027542720426574B3
:1005F0007765656E206461746520616E642074693E
:100600006D6500202D3E204572726F72206F66204E
:1006100064656C696D6974657220272D2720696E89
:10062000206461746500202D3E20746F6F206D6121
:100630006E79206368617261637465727320212032
:10064000286F6E6C792031392063686172292041EE
:100650004141412D4D4D2D44445468683A6D6D3AE9
:100660007373004D42433A204D616C666F726D6545
:100670006420696E707574004D42433A205B59598D
:1006800059592D4D4D2D44445468683A6D6D3A7357
:10069000735D004D42433A20525443206973204E0B
:1006A0004F5420617661696C61626C65002575202C
:1006B0002D2025730A004D6178696D756D206E756A
:1006C0006D626572206F6620636861726163746534
:1006D0007273206973207265616368656420696E56
:1006E000206120636F6D6D616E64207465787400A5
:1006F0004D42433A204D454E55204661696C656434
:1007000000004D42433A20426F6F742D4D656E7567
:1007100000202D3E2063616E63656C6C6174696FAF
:100720006E202100202D3E2063616E63656C6C613C
:1007300074696F6E202100202D3E20746F6F206D34
:10074000616E7920617267756D656E74732021200A
:10075000286F6E6520636861726163746572206FD3
:100760006E6C79290000202D3E204E6F20636F6D46
:100770006D616E6420636F6465206D617463686988
:100780006E67202100202D3E20746F6F206D616EFA
:100790007920617267756D656E7473202120286FF2
:1007A0006E6520636861726163746572206F6E6C40
:1007B00079290020656E61626C656400206469734C
:1007C00061626C656400494F533A204155544F456E
:1007D000584543202D00494F533A20434C4B202D80
:1007E00020256C752E2530336C75204D487A00001D
:1007F000003A0037003400310000003B003800357B
:1008000000320000003900360033003000020202DE
:1008100002020202020404040404040404030303A5
:1008200003030303030101010101010101010204AA
:1008300008102040800102040810204080010204BA
:1008400008102040800102040810204080000000B1
:100850000200000000000000000504000700000086
:100860000000000000000000000000000020202028
:10087000202D20526163636F6F6E2773204D4F44AC
:1008800000494F53202D20492F4F20537562737913
:100890007374656D202D20533232303731382D522C
:1008A000323430363230005A38302D4D4243322007
:1008B0002D204130343036313820004445563A201E
:1008C0004D43503233303137204750494F2045781F
:1008D00070616E646572202D20466F756E642E0007
:1008E0004445563A204D435032333031372047503B
:1008F000494F20457870616E646572202D204E6FDF
:100900007420466F756E642E001F1C1F1E1F1E1F55
:100910001F1E1F1E496E74657266616365206D69D6
:100920007374616B652077697468206C69627261A9
:1009300072792053657269616C53657269616C4D9F
:10094000656E75436D64004E6F204D656E75206950
:100950006E206D656D6F7279003E00006E2E112461
:100960001FBECFE5D8E0DEBFCDBF23E0AEE1B1E0F2
:1009700001C01D92A23FB207E1F711E0A0E6B0E08E
:10098000E4E0F2E702C005900D92AE31B107D9F76D
:1009900014E0CFEAD4E004C02197FE010E94D736CC
:1009A000CE3AD107C9F70E94AC2E0C9400390C94B2
:1009B0000000982F20913A0381E0213208F040C0D6
:1009C000809116038111FCCF8091390332E030937E
:1009D0001603909315039FEF909314031092130343
:1009E00020931203A9E1B3E0E2EFF2E090E02913D3
:1009F0002EC01092F1029091F102880F892B809302
:100A0000F1028091F002813031F51092F002809174
:100A1000F10283B906B603FCFACF85EC86BF80915C
:100A200016038230E1F3809114038F3FB1F080917F
:100A300014038032A1F080911403803391F084E09C
:100A40001092180310923A031092170308953D91E3
:100A500031939F5FCCCF85EEE1CF80E0F1CF82E094
:100A6000EFCF83E0EDCF08950895DC0115961C9239
:100A7000159714961C92149713961C9213971C9218
:100A800081E011968C93119711968C9111978C306F
:100A900070F4282F2150330BF901E75FF64FE491F2
:100AA000823009F4EF5FE11102C08F5FEACF81E08D
:100AB00012968C930895CF93DF93FC01C081D1816E
:100AC000209769F088859985892B69F4EE85FF85E3
:100AD000309769F040E070E060E0CE010995CE010A
:100AE000DF91CF9108950E80DF81C02DE9CFD0E056
:100AF000C0E0F5CFCF92DF92EF92FF920F931F935A
:100B0000CF93DF9320916E0230916F0240916C027F
:100B100050916D02D0E0C0E0A0E8B2E0ED91FC9110
:100B200011973097A9F080859185DF0116962817D7
:100B3000390740F0828593858417950708F071C0C6
:100B4000DF011496EF01ED91FC911197309759F761
:100B5000AE010D2E000C660B770B40936402509390
:100B600065026093660270936702109269021092A8
:100B7000680210926B0210926A0284E692E08D93F2
:100B80009C93209709F439C18881998180FD49C0DF
:100B900064E672E09C01FC01448155814C175D07BD
:100BA00009F473C04115510521F0DA018C9180FFE1
:100BB00041C0AC81BD816A177B0709F4C1C0B7830E
:100BC000A683FD83EC83109751F02160A901330FB8
:100BD000660B770B4D935D936D937C9313974081D8
:100BE000518162817381DA01AC7F488359836A83C2
:100BF0007B83AE010D2E000C660B770B4083518377
:100C000062837383109709F496C016968D919C9118
:100C10001797E817F90709F4BAC01596DC93CE9335
:100C20001497DF91CF911F910F91FF90EF90DF907C
:100C3000CF900895C90181608C01990F220B330B6D
:100C40000D931D932D933C931397088319832A8347
:100C50003B83C081D181CC7FCE010D2E000CAA0B2D
:100C6000BB0B80839183A283B383209709F4C7C011
:100C700088819981BF0180FDD4CF9C01FC01448112
:100C800055814C175D0709F08DCFA681B78110976C
:100C900019F08C9180FF3FC0DA011696CD91DC915E
:100CA0006C177D0709F478C0D583C483DA011796E1
:100CB000FC93EE931697209751F0C9018160092E9D
:100CC000000CAA0BBB0B88839983AA83BB8300818A
:100CD000118122813381D801AC7FEA010883198315
:100CE0002A833B838A01052E000C220B330B0083E1
:100CF000118322833383109709F475C016968D9162
:100D00009C911797E817F90709F472C015965C9340
:100D10004E93149786CFA9014160052E000C660BF7
:100D2000770B4D935D936D937C9313974883598311
:100D30006A837B838ECFD0938102C093800271CF70
:100D4000DB0116968D919C9117979D838C83179646
:100D5000DC93CE931697009769F06E016894C0F803
:100D60000D2C000CEE08FF08DC01CD92DD92ED9217
:100D7000FC921397CB01072E000CAA0BBB0B8883A8
:100D80009983AA83BB83EB01AC81BD8118CF1796F1
:100D9000DC93CE93169745CFEB01AC81BD81EA0180
:100DA000BF83AE83EB015D834C83109761F06A01D2
:100DB0006894C0F80D2C000CEE08FF08CD92DD926F
:100DC000ED92FC921397CB01072E000CAA0BBB0BE4
:100DD000EA0188839983AA83BB83DB011696CD91B0
:100DE000DC91AB0161CF509381024093800219CF17
:100DF00017965C934E93169714CFE4E6F2E081E0E9
:100E000090E0A0E0B0E080839183A283B38309CF18
:100E1000109281021092800208950F931F93CF9336
:100E2000DF93FC01C081D1812097D1F0888599851D
:100E3000892B89F4EC85FD85309791F08B0170E06A
:100E400060E0CE010995F8018083CE01DF91CF915A
:100E50001F910F9108950E80DF81C02D209731F7EB
:100E6000FB011082D0E0C0E0F0CFAF92BF92CF92F2
:100E7000DF92EF92FF920F931F93CF93DF936C015A
:100E80007B018B01040F151FEB015E01AE18BF083B
:100E9000C017D10759F06991D601ED91FC910190ED
:100EA000F081E02DC6010995892B79F7C501DF9105
:100EB000CF911F910F91FF90EF90DF90CF90BF9057
:100EC000AF900895FC01538D448D252F30E0842F81
:100ED00090E0821B930B541710F0CF960895019762
:100EE0000895FC01918D828D981761F0A28DAE0F4F
:100EF000BF2FB11D5D968C91928D9F5F9F73928FD6
:100F000090E008958FEF9FEF0895FC01918D828D01
:100F1000981731F0828DE80FF11D858D90E00895CE
:100F20008FEF9FEF0895FC01918D228D892F90E026
:100F3000805C9F4F821B91098F73992708958BE3E3
:100F400093E00E94930721E0892B09F420E0822F8F
:100F50000895FC01A48DA80FB92FB11DA35ABF4F4E
:100F60002C91848D90E001968F739927848FA689A8
:100F7000B7892C93A089B1898C9180648C93938DCF
:100F8000848D981306C00288F389E02D80818F7DBF
:100F900080830895EF92FF920F931F93CF93DF9377
:100FA000EC0181E0888F9B8D8C8D981316C0E889A9
:100FB000F989808185FF11C0EE89FF896083E88906
:100FC000F98980818064808381E090E0DF91CF9116
:100FD0001F910F91FF90EF900895F62E0B8D10E06A
:100FE0000F5F1F4F0F731127E02E8C8D8E110CC0D9
:100FF0000FB607FCFACFE889F989808185FFF5CF24
:10100000CE010E94A907F1CFEB8DEC0FFD2FF11D52
:10101000E35AFF4FF0820B8FEA89FB89808180625F
:10102000D2CF0F931F93CF93DF938C01D0E0C0E01A
:10103000F801EC0FFD1F6491662341F08BE393E010
:101040000E94CA07892B11F02196F2CFCE01DF91C1
:10105000CF911F910F910895682F8BE393E00C942B
:10106000CA07CF93DF93EC01888D8823B9F0AA8952
:10107000BB89E889F9898C9185FD03C0808186FD53
:101080000DC00FB607FCF7CF8C9185FFF2CF8081A2
:1010900085FFEDCFCE010E94A907E9CFDF91CF9167
:1010A0000895843059F028F4813099F0823089F025
:1010B0000895853039F0873041F008958FB58F77E6
:1010C0008FBD08958FB58F7DFBCF85B58F7D85BD95
:1010D000089583B78F7D83BF0895CF93DF93282F23
:1010E00030E0F901E35BF74F8491F901E35DF74FDD
:1010F000D491F901E35FF74FC491CC23A1F08111A2
:101100000E945108EC2FF0E0EE0FFF1FED5FF74F4C
:10111000A591B491EC91ED2381E090E009F480E099
:10112000DF91CF91089580E090E0FACF1F93CF93A5
:10113000DF93282F30E0F901E35BF74F8491F90149
:10114000E35DF74FD491F901E35FF74FC491CC23EE
:10115000A9F0162F81110E945108EC2FF0E0EE0F3C
:10116000FF1FE750F84FA591B4918FB7F894EC9119
:10117000111108C0D095DE23DC938FBFDF91CF9192
:101180001F910895DE2BF8CF1092CF021092CE025D
:101190001092180310923A031092160381E0809384
:1011A00015031092F00261E081E10E94960861E06F
:1011B00080E10E9496080898099888E480B985E43F
:1011C00086BF83E395E09093CD028093CC0284E3C5
:1011D00095E09093CB028093CA020895CF93DF935A
:1011E000FC01C285D3858F8D8D3071F49E8D8485F1
:1011F000891751F09487913099F048F09230B1F00E
:101200008FEF8F8F81E088A3DF91CF91089561E008
:101210008CE00E94960860E08BE00E949608F0CF78
:1012200061E08CE00E94960861E0F6CF60E0F9CFC3
:10123000CF93DF9390E0FC01E35DF74F2491835F50
:10124000974FFC0184918823C9F090E0880F991F83
:10125000FC01E151F84FA591B491FC01E750F84F22
:10126000C591D49161110DC09FB7F8948C912095D0
:1012700082238C938881282328839FBFDF91CF917D
:101280000895623051F49FB7F8943C91822F809575
:1012900083238C93E8812E2BEFCF8FB7F894EC91BA
:1012A0002E2B2C938FBFEACF8230910538F0880F18
:1012B000991F880F991F05970197F1F708953FB778
:1012C000F8948091280290912902A0912A02B0916D
:1012D0002B0222B708B600FE05C02F3F19F0019679
:1012E000A11DB11D3FBFBA2FA92F982F8827BC0180
:1012F000CD01620F711D811D911D42E0660F771FA8
:10130000881F991F4A95D1F708958F929F92AF92A7
:10131000BF92CF92DF92EF92FF924B015C010E944D
:101320005F096B017C010E945F096C197D098E09C0
:101330009F09683E734081059105A8F321E0821A58
:101340009108A108B10888EEC80E83E0D81EE11C00
:10135000F11C81149104A104B10429F7FF90EF90CE
:10136000DF90CF90BF90AF909F908F9008950F9394
:101370001F93E091C802F091C9029B01AC01225079
:1013800031094109510986819781A085B18502976C
:10139000A109B109281739074A075B0778F4A28128
:1013A000B0E00E94CA350289138924893589600F0B
:1013B000711F821F931F1F910F91089560E070E0CD
:1013C000CB01F9CF0F931F93CF93DF93EC01E09103
:1013D000C802F091C902198218826C817D818E81C8
:1013E0009F81613071058105910581F10681178129
:1013F00020853185601771078207930738F56115DD
:1014000071058105910539F42081233021F4668529
:10141000778580899189688779878A879B87611515
:1014200071058105910569F00E94B7096C877D8778
:101430008E879F8790E080E0DF91CF911F910F9181
:1014400008956685778580899189F0CF81E090E065
:10145000F3CF8FB9779BFECF08958FEF0E94290AB3
:101460008FB108950F931F93CF93DF93C091210203
:10147000D09122022197CD3F8FEFD80721F080E055
:101480000E94290AF7CF0E942D0A8F71853079F0CA
:10149000D1E0C0E061E084E00E9496080E942D0A3D
:1014A0008D2F9C2FDF91CF911F910F91089508E808
:1014B00013E1C0E9D1E00E942D0A8F3F49F00115E8
:1014C000110531F3CE010197F1F701501109F3CF66
:1014D000D1E0C0E0012BF1F2D0E0DCCFFF920F931E
:1014E0001F93CF93DF93C82FD42F152F062FF72EDE
:1014F0008091200281113FC083E58DB91EB8C7FFDE
:1015000009C040E050E0BA0187E70E946E0A8230CD
:1015100060F5CF7761E084E00E9496080E942D0A72
:1015200060E084E00E9496080E942D0A8C2F0E94A1
:10153000290A8F2D0E94290A802F0E94290A812FB3
:101540000E94290A8D2F0E94290A85E9C03421F0C2
:1015500087E8C83409F081E00E94290ACAE00E94A5
:101560002D0A87FF02C0C150D1F7DF91CF911F91A3
:101570000F91FF90089580E58DB981E08EB9BFCFBE
:10158000EF92FF920F931F93CF93DF930097C9F0D1
:10159000EA018C012097B1F1E0902102F090220243
:1015A000E114F10479F1F80181918F010E94290A77
:1015B000F1E0EF1AF108F0922202E0922102219765
:1015C000E9CF411551056105710529F1809120028E
:1015D00083FD07C089E0440F551F661F771F8A955A
:1015E000D1F788E50E946E0A81111DC08FEF0E941D
:1015F000290A8EEF0E94290A80E092E0909322024D
:101600008093210290E080E0DF91CF911F910F91B4
:10161000FF90EF900895DF91CF911F910F91FF9070
:10162000EF900C94320A81E090E0EECFCF92DF92FF
:10163000EF92FF920F931F93CF93DF937C01690189
:101640008091200283FD07C089E0440F551F661F6B
:10165000771F8A95D1F781E50E946E0A811108C033
:10166000C0E4DCE90E942D0A8F3F29F42197D1F7CD
:10167000C1E0D0E022C08E3FD9F7C2E0D2E0C01B6B
:10168000D10BCC19DD0981E0C81AD10818F00E94ED
:101690002D0AF9CFE114F10401F10E0D1F1D0E9476
:1016A0002D0AF70181937F010E171F07C1F70E94D2
:1016B0002D0A2197E1F7D0E0C0E061E084E00E94CC
:1016C00096080E942D0ACE01DF91CF911F910F91B4
:1016D000FF90EF90DF90CF9008950E942D0A015067
:1016E0001109D9F7E4CFCF92DF92EF92FF920F93D7
:1016F0001F93CF93DF93EC016A017B0102E010E0BE
:101700002EEF31E00E94160B892B31F588819981EB
:1017100085359A4A59F526E330E0B701A601CE0196
:101720000E94160B892B29F4888199818634914473
:1017300089F002E010E022E530E0B701A601CE0119
:101740000E94160B892BA1F481E02881398126346F
:10175000314419F480E001C083E0DF91CF911F9103
:101760000F91FF90EF90DF90CF90089582E0F5CF3A
:1017700081E0F3CF2F923F924F925F926F927F92D0
:101780008F929F92AF92BF92CF92DF92EF92FF9291
:101790000F931F93CF93DF93CDB7DEB7A4970FB608
:1017A000F894DEBF0FBECDBF1C0140E050E0BA018F
:1017B000CE0101960E94730B412C512C32018130D5
:1017C000C1F500E110E02EEB31E040E050E0BA015D
:1017D000CE0101960E94160B892BD9F081E090E092
:1017E000A4960FB6F894DEBF0FBECDBFDF91CF91A8
:1017F0001F910F91FF90EF90DF90CF90BF90AF902F
:101800009F908F907F906F905F904F903F902F9020
:1018100008958D81811103C086E090E0E1CF498475
:101820005A846B847C84B301A201CE0101960E948C
:10183000730B833099F28111EFCF04E210E02DE0B9
:1018400030E0B301A201CE0101960E94160B892B54
:1018500029F62A853B8550E040E0211531054105F8
:10186000510521F4288D398D4A8D5B8DAC81B0E016
:101870000E94CA354B015C014A815B8170E060E0E7
:10188000440E551E661E771EF101428653866486FD
:10189000758629812283CD80DE80D582C4828F81A6
:1018A0009885B0E0A0E00097A105B10521F48C89EE
:1018B0009D89AE89BF8934E0D694C7943A95E1F703
:1018C000F12CE12C841B950BA60BB70BBC01CD01B1
:1018D000681979098A099B096C197D098E099F0984
:1018E00030E050E040E00E94A835DA01C9010296DC
:1018F000A11DB11DF10186839783A087B187265F63
:101900003F40410951092F3F3F4E41055105B0F17C
:10191000873F2FEF9207A105B10500F183E0F101A8
:10192000808388A199A1AAA1BBA186879787A08B54
:10193000B18BC40CD51CE61CF71CC80CD91CEA1CC6
:10194000FB1CF101C28AD38AE48AF58A11823092A3
:10195000C9022092C80290E080E042CF873F9F40BA
:10196000A105B10508F058CF81E0F1018083D501D0
:10197000C401840D951DA61DB71DD7CF873F9F4F6E
:10198000A105B10558F682E0F0CF4F925F926F92B9
:101990007F92AF92BF92CF92DF92EF92FF920F931E
:1019A0001F93CF93DF9300D000D0CDB7DEB7623066
:1019B00071058105910528F461E070E080E090E018
:1019C00063C0A090C802B090C902F501C680D7805C
:1019D000E084F1846C157D058E059F0568F76B0129
:1019E0007C018081823009F462C0833009F47BC0BD
:1019F000813011F72B0156944794460E571E9201E1
:101A00003170452C55244694712C612C42855385A8
:101A100064857585440D551D661D771D02E010E037
:101A2000CE0101962F3FF1E03F07E1F401E010E025
:101A30002FEF31E0CE0101960E94160B892B09F0A1
:101A4000BBCFF50142855385648575854F5F5F4F38
:101A50006F4F7F4F440D551D661D771D30E020E010
:101A6000CE0102960E94160B892B09F0A5CF698141
:101A70007A81C0FC02C07F7005C0E4E0769567956E
:101A8000EA95E1F790E080E00F900F900F900F90B3
:101A9000DF91CF911F910F91FF90EF90DF90CF904A
:101AA000BF90AF907F906F905F904F9008959B0193
:101AB0003327220F331FCD2CDE2CEF2CFF24428541
:101AC0005385648575854C0D5D1D6E1D7F1D02E07F
:101AD00010E0CE0101960E94160B892B09F06CCF05
:101AE00069817A81CFCF9B012F773327220F331F54
:101AF000220F331F97E0F694E794D794C7949A95F2
:101B0000D1F742855385648575854C0D5D1D6E1D2D
:101B10007F1D04E010E0CE0101960E94160B892B78
:101B200009F04ACF69817A818B819C819F70ACCF0B
:101B30004F925F926F927F928F929F92AF92BF92DD
:101B4000CF92DF92EF92FF920F931F93CF93DF9389
:101B5000C091C802D091C902209709F4B1C029816F
:101B600020FFB1C0CA8CDB8CEC8CFD8C4E895F8968
:101B7000688D798DC41AD50AE60AF70A20E2C216E2
:101B8000D104E104F10428F040E2C42ED12CE12C70
:101B9000F12C3C014C01F12CE12C412C32E0532E74
:101BA000C114D10409F47AC08E899F89A88DB98D9A
:101BB000AC01BD01517066277727452B462B472B7B
:101BC00009F03FC0BA80BA94AC01BD0129E0769516
:101BD0006795579547952A95D1F7B422F9F4892B43
:101BE0008A2B8B2B81F46E8D7F8D88A199A1623019
:101BF00071058105910570F4198281E090E091955D
:101C0000819591094CC06AA17BA18CA19DA10E94E4
:101C1000C50CEDCF6AA37BA38CA39DA36AA17BA176
:101C20008CA19DA10E94B7096115710581059105DF
:101C300019F36B0D711D811D911D6EA37FA388A7E4
:101C400099A72E893F893170C201821B930B5601DF
:101C50008C159D0508F45C014EA15FA168A579A5CE
:101C6000C4016114710411F480E090E085010E94C8
:101C7000160B892B09F68E899F89A88DB98D8A0D3F
:101C80009B1DA11DB11D8E8B9F8BA88FB98F8A0CB8
:101C90009B1CCA18DB08EA0CFB1C82CFC701DF9132
:101CA000CF911F910F91FF90EF90DF90CF90BF9059
:101CB000AF909F908F907F906F905F904F9008951E
:101CC00085E090E09CCF84E090E099CFAF92BF9206
:101CD000CF92DF92EF92FF920F931F93CF93DF93F8
:101CE00000D000D0CDB7DEB780912002882339F034
:101CF00084E00E946D08892B11F40E94320A61E091
:101D000084E00E94960861E084E00E94180961E086
:101D100085E00E94180961E087E00E94180961E0EF
:101D200084E00E94180983E58DB91EB861E084E063
:101D30000E9496081AE00E942D0A1150E1F740E037
:101D400050E0BA0180E40E946E0A182F8130D9F069
:101D500010E01093200261E084E00E9496080E9447
:101D60002D0A81E0111180E00F900F900F900F90DD
:101D7000DF91CF911F910F91FF90EF90DF90CF9067
:101D8000BF90AF9008954AEA51E060E070E088E4C7
:101D90000E946E0A813079F5CE0101967C016E01B8
:101DA00095E0C90ED11C87010E942D0AF80181938C
:101DB0008F01CE16DF06C1F78B81813049F68C8109
:101DC0008A3A31F620E1C22E27E2D22E30E9A32E44
:101DD000BB24B39440E050E060E070E489EE0E94E0
:101DE0006E0A882359F1C5010197F1F7F1E0CF1A86
:101DF000D10881F7ADCF40E050E0BA0189EE0E94F2
:101E00006E0A01E4823010F412E009EE80E1E82E5F
:101E100087E2F82E90E9C92EDD24D39440E050E00B
:101E2000BA01802F0E946E0A8823F1F0C601019743
:101E3000F1F7F1E0EF1AF10889F78ACF40E050E0BE
:101E4000BA018AE70E946E0A811182CF0E942D0A90
:101E5000F70181937F010E171F07C1F789811CE0ED
:101E600086FD77CF14E075CF40E052E060E070E08F
:101E700080E50E946E0A882309F46BCF69CF85ED57
:101E800086BF06B604FCFDCF10921603089520917C
:101E9000FD01260F3327331F21323105ECF4209149
:101EA0001603FC0190E080E0243069F082E00895A0
:101EB000A091FD012191AC0143525E4FA40FB52FBB
:101EC000B11D2C930196861798F38091FD01680F40
:101ED0006093FD0180E0089581E008950895E09108
:101EE000CF028091CE02E81730F4F0E0E053FD4FCE
:101EF000808190E008958FEF9FEF08959091CF0239
:101F00008091CE022FEF3FEF981748F4E92FF0E0D1
:101F1000E053FD4F208130E09F5F9093CF02C901D5
:101F200008958091CE029091CF02891B990B08955C
:101F3000CF92DF92EF92FF920F931F93CF93DF9395
:101F40007C01CB018A0120911703222389F0EB0148
:101F50006B01C40ED51ECC15DD0569F06991D70162
:101F6000ED91FC910190F081E02DC7010995F3CF2F
:101F7000642F0E94470FC801DF91CF911F910F91ED
:101F8000FF90EF90DF90CF900895CF93DF931F9253
:101F9000CDB7DEB76983209117032223F9F0209192
:101FA0003A03203258F021E030E0FC0133832283F1
:101FB00090E080E00F90DF91CF9108958091180319
:101FC000E82FF0E0E75EFC4F998190838F5F80936C
:101FD000180380933A0381E090E0ECCF61E0CE01FA
:101FE00001960E94470FF7CF90E080E00895FC0132
:101FF00083858F3F19F061E00C9496080895FC01E9
:1020000080819181892B39F0A281B3819C911196B5
:102010008C919DB98EB983858F3F19F060E00C9447
:1020200096080895AF92BF92CF92DF92EF92FF92FF
:102030000F931F93CF93DF93EC0188819981892BB4
:1020400081F06FB9779BFECFBFB08B2DDF91CF9121
:102050001F910F91FF90EF90DF90CF90BF90AF90C6
:1020600008958885998511E0892B09F010E8AA2444
:10207000A394862F812309F0A12C062F2C813D816A
:102080004E815F8160E271EA87E090E00E94A835AE
:10209000F22EB02EE12CC22ED12CFF2019F0C60159
:1020A0000E9454098A85877F09F042C08D858F3F41
:1020B00089F0902F912381E009F480E08A1551F096
:1020C000EF85F8898F89992369F19081892B808325
:1020D000AA24A394E989FA898081998D892B808328
:1020E000FF2019F0C6010E9454098E858F3F39F0F8
:1020F000EB89FC898081988D892309F0E12AE9899F
:10210000FA899081898D8095892380838E858F3F80
:1021100009F0BE2C88859985892BB9F5110F11110D
:10212000BCCF93CF9081809589238083A12CD2CF7F
:10213000E989FA898081998D892B8083FF2019F0A4
:10214000C6010E9454098D858F3F49F0EF85F889BB
:102150008F89902F9123A9F09081892B8083E98921
:10216000FA899081898D8095892380838E858F3F20
:1021700069F2EB89FC898081988D892339F2E12A03
:10218000C5CF908180958923E9CF1695C8CF8F92CE
:102190009F92AF92BF92CF92DF92EF92FF920F93F6
:1021A0001F93CF93DF937C014B016A01B22EA32EC4
:1021B0000E94FF0FE401C80CD91CCC15DD0569F4A1
:1021C000CB2DDA2D0C0F1D1FC017D10759F06FEF63
:1021D000C7010E9412108993F7CF6991C7010E942D
:1021E0001210EBCFC7010E94F70F81E0DF91CF9172
:1021F0001F910F91FF90EF90DF90CF90BF90AF9025
:102200009F908F9008958F929F92AF92BF92CF929E
:10221000DF92EF92FF920F931F93CF93DF937C0196
:10222000B62EA72E6A0149010E94FF0FE401080D96
:10223000191DC017D10761F4CB2DDA2DCC0EDD1E90
:10224000CC15DD0551F06991C7010E941210F8CF3D
:102250006991C7010E941210ECCFC7010E94F70FCD
:1022600081E0DF91CF911F910F91FF90EF90DF9070
:10227000CF90BF90AF909F908F9008958F929F9234
:10228000BF92CF92DF92EF92FF920F931F93CF9363
:10229000DF93DA01AE0DBF1DEC01EC81FD81EA1781
:1022A000FB0710F490E026C0B22E6A014B01898131
:1022B0009A81288131E030931703209339031092DB
:1022C000180310923A03E114F10409F589819A8107
:1022D000DC01ED91FC910280F381E02DA601B401B7
:1022E0000995C816D906F1F68B2D0E94D90491E004
:1022F0008111D8CF892FDF91CF911F910F91FF903E
:10230000EF90DF90CF90BF909F908F900895011530
:102310001105E1F2DC01ED91FC910280F381E02DE9
:10232000A701B80109958E159F0509F0BBCFCECF47
:10233000CF93DF93EC018B818823A1F0888191E01A
:1023400090931703809339031092180310923A0365
:1023500081E00E94D90491E0811190E0892FDF9102
:10236000CF9108950E94C40881E08B83CE010E9422
:102370009811982F8111E2CFF1CFCF92DF92EF9297
:10238000FF920F931F93CF93DF9300D0CDB7DEB7AB
:10239000FC01211101C02085253008F06AC0478763
:1023A000508B618B728B90E080E0C22ED12C8C150B
:1023B0009D05B4F4228521110BC0DF01A80FB91FC0
:1023C0001B964C93452F562F672F77270196EFCFFB
:1023D000D601A81BB90BAE0FBF1F1A964C93F2CFB4
:1023E000BF01655F7F4F9681478199834A83A081B2
:1023F000B1811097A9F0E184F12C8E010F5F1F4F7E
:1024000021E0A601CD010E943E110F900F90DF91B7
:10241000CF911F910F91FF90EF90DF90CF90089593
:10242000A281B381109729F124813581018510E0C3
:102430002330310569F44E7F49839A830F5F1F4F24
:102440009E012F5F3F4FA601CD010E940311DDCFFA
:102450002115310519F49F779983F2CF2230310588
:1024600011F49068F9CF2130310551F79F779064CE
:10247000F3CF80E0CACFFC0170E08481893030F076
:10248000660F771F442311F06F5F7F4F8281938126
:10249000892B41F0858190E0982F8827990F9064CF
:1024A000682B792BCB010895EF92FF921F93CF9366
:1024B000DF93CDB7DEB763970FB6F894DEBF0FBEDC
:1024C000CDBF7C01162F69E00E943B12F7014281CB
:1024D000538120813181188A198A1A8A1B8A5C8368
:1024E0004B833A83298323E030E03E832D8321E030
:1024F0002A8798878F831B862987412F50E070E0B9
:1025000060E020E0CE0101960E94BD1163960FB6F7
:10251000F894DEBF0FBECDBFDF91CF911F91FF902A
:10252000EF900895CF92DF92EF92FF920F931F9357
:10253000CF93DF93FC01808591858B01081B190BDC
:10254000A08DB18DA00FB11F4C93C08CD18C7F0199
:1025500084E1E80EF11CC489D589EC16FD0649F426
:10256000DF91CF911F910F91FF90EF90DF90CF906F
:102570000895E885F985309721F0A801B601CE01CC
:1025800009950990D881C02DE8CFAF92BF92CF9224
:10259000DF92EF92FF920F931F93CF93DF93EC01A3
:1025A000888599857B01E81AF90AA88CB98C6E0197
:1025B00084E1C80ED11C0C891D89C016D10689F48E
:1025C000688D798DE60EF71ED7018C91DF91CF9142
:1025D0001F910F91FF90EF90DF90CF90BF90AF9041
:1025E0000895D8011696ED91FC91309721F0A7013E
:1025F000B501C8010995F80100811181DECF61E0C4
:102600008DE00E94180961E08DE00E949608E0EDDF
:10261000F1E081E084878AE894E19783868386E20B
:1026200096E191878087F0936102E0936002CF0189
:1026300008954F925F926F927F928F929F92AF9286
:10264000BF92CF92DF92EF92FF920F931F93CF939F
:10265000DF9300D000D000D0CDB7DEB7FC01E85A40
:10266000FF4FC080D180C11422E0D20608F015C10E
:1026700032962081203208F010C18C01055A1F4F7C
:10268000D8011C92E091C802F091C902FE83ED834B
:10269000309709F419C1818180FF18C145E0CC0C45
:1026A000DD1C4A95E1F7C22AF12CE12C828D938D35
:1026B000A48DB58D59E0CC0CDD1CEE1CFF1C5A9589
:1026C000D1F78C159D05AE05BF0510F46C017D0199
:1026D000AD81BE8156964D905D906D907C905997DE
:1026E000FD01168A178A108E118EC114D104E104DF
:1026F000F10409F4D2C08280912CB12CA12C39E0D4
:10270000880C991CAA1CBB1C3A95D1F741145104A2
:102710006104710409F45CC0F1E04F1A51086108CA
:102720007108C701B6016150710981099109A501BC
:1027300094010E94A83529833A834B835C83C301AB
:10274000B201A50194010E94A83589819A81AB81CB
:10275000BC8182179307A407B507D0F18827992772
:10276000DC0188199909AA09BB0984219521A621B0
:10277000B721ED81FE81868B978BA08FB18FC81A10
:10278000D90AEA0AFB0A62A173A184A195A18C145B
:102790009D04AE04BF0408F045C00E94C50C623021
:1027A00071058105910568F0AD81BE8116964D9049
:1027B0005D906D907C901997641575058605970559
:1027C000A8F0ED81FE81118281E0F801808365C06F
:1027D000AD81BE815E966D917D918D919C91919719
:1027E000FD0162A373A384A395A3D1CFAD81BE8164
:1027F00092966D937D938D939C93959756964D905D
:102800005D906D907C905997480C591C6A1C7B1CFC
:10281000FD01468A578A608E718EC818D908EA0869
:10282000FB08B5CFAD81BE8156968D909D90AD9041
:10283000BC905997C80CD91CEA1CFB1CFD01C68A28
:10284000D78AE08EF18E0E94B709AB01BC01411519
:1028500051056105710529F4AD81BE8111961C9267
:10286000B3CFED81FE8182818150990B092E000C3E
:10287000AA0BBB0B29E0F694E794D794C7942A954A
:10288000D1F78C219D21AE21BF21480F591F6A1F0E
:102890007B1F46A357A360A771A726960FB6F8948F
:1028A000DEBF0FBECDBFDF91CF911F910F91FF9083
:1028B000EF90DF90CF90BF90AF909F908F907F90E0
:1028C0006F905F904F90089585E07FCF84E07DCF3B
:1028D0000F931F93CF93DF93EC018DE00E946D085F
:1028E000888362E08DE00E9418098DE00E946D08E7
:1028F0008C0161E08DE00E94180968818DE00E94E2
:10290000960881E0012B09F080E0DF91CF911F91C3
:102910000F910895CF93DF93FC01C285D3852F8D4E
:10292000203841F40C960E9468148E8F8FEF8F8FA1
:1029300081E088A3DF91CF9108950F931F93CF93E8
:10294000DF938C0106551109F801278D233889F48E
:10295000EC018BE393E00E94930721E0892B09F4BB
:1029600020E08A8520FB82F98A87F801868F8FEF25
:10297000878FDF91CF911F910F91089561E080E0E3
:102980000C9496080F931F93CF93DF938C01D0E0A4
:10299000C0E061E08FE00E949608000060E08FE0F8
:1029A0000E949608000021960C171D0791F7DF91F1
:1029B000CF911F910F91089560E086E10E949608E3
:1029C00086E090E00E94C21461E086E10E949608D1
:1029D00082E090E00C94C2140E94DC140E94BE14A9
:1029E00060E086E10E94960885B5806185BD85B569
:1029F0008F7D85BD61E070E080E090E00E948509F8
:102A00008BE393E00E949307892B29F08BE393E0FB
:102A10000E947107F5CF61E086E10E94960881EA85
:102A200095E1909363028093620208951ABA8FEF42
:102A30008BBB08951F93CF93DF93182FD92F81E07D
:102A400090E00E94C21460E082E00E949608CFEFFE
:102A5000CABB81E28BBB82E090E00E94C2140E945C
:102A6000161582E090E00E94C214CABB1BBB83E033
:102A700090E00E94C214CABBDBBB82E090E00E94DF
:102A8000C2140E94161561E082E0DF91CF911F9180
:102A90000C949608CF93DF93D82F81E090E00E94AA
:102AA000C21460E082E00E949608CFEFCABB86E3C2
:102AB0008BBB82E090E00E94C2140E94161582E057
:102AC00090E00E94C214CABBDBBB82E090E00E948F
:102AD000C2140E94161561E082E00E94960883E00D
:102AE00090E00E94C21481E090E00E94C21460E075
:102AF00082E00E949608CABB83E28BBB82E090E032
:102B00000E94C2140E94161561E082E00E9496089D
:102B100083E090E0DF91CF910C94C214CF93DF93C8
:102B2000D82FC92F83EC0E944A158D2F0E944A1579
:102B30008C2F0E944A158D2F9C2FDF91CF910C94E2
:102B40001A150F931F93CF93DF93EC0183E00E943C
:102B50006D08811176C083E10E946D08811112C059
:102B600082E10E946D0881111CC089B38E8F18A26A
:102B7000CE014C960E945B0588A1811109C08FEFA0
:102B80008F8F06C084E10E946D08882309F445C038
:102B900060E08EE00E94960860E080E00E94960867
:102BA0002CC089B38F8F1AA219A2F2CF8BE393E0C6
:102BB0000E9493078E010A5A1F4F181619063CF5FA
:102BC0008BE393E00E9471078E8FF8018285877FE7
:102BD000828761E081E00E9496088E8D9FEF9ABB0C
:102BE0008BBB60E08EE00E94960860E080E00E946F
:102BF0009608000000000E9416150E94BE1461E0B5
:102C00008EE0DF91CF911F910F910C9496088FEF7A
:102C10008E8FF80182858860DBCF82E10E946D088B
:102C20008111C4CF1E8E18A2BE016D5D7F4FCE01F3
:102C30004C960E940D0788A18111CFCF8FEF8F8F07
:102C4000CCCFDF91CF911F910F9108950F931F93D8
:102C5000CF93DF93FC0102851385F801278D2111A5
:102C600012C0EC01868D61E080FF12C08DE00E94F1
:102C7000180960E08DE00E9496081C868FEFF8012D
:102C8000878F81E080A3DF91CF911F910F910895ED
:102C90008DE00E94180961E08DE00E94960881E0B5
:102CA0008C87ECCF1F93CF93DF93FC01C285D38534
:102CB0001F8D113041F46E8D8BE393E00E94CA07A3
:102CC0008FEF8F8F18A3DF91CF911F910895CF922F
:102CD000DF92EF92FF920F931F93CF93DF938C01BC
:102CE000FC01C285D3858F8D863859F0873809F469
:102CF0004FC0853809F03FC0E55AFF4F80818E8F65
:102D000038C089A19AA19801255A3F4F6901892BA2
:102D100039F4F9018081811103C0C8010E9419139F
:102D2000E9A0FAA0FFE1EF22FF24F60180818111E2
:102D300015C0E114F10469F4C801C8960E94980D09
:102D400097FF22C08195F6018083F6018081811171
:102D500005C00E0D1F1DF80180AD8E8F89A19AA1AF
:102D60008F3FF1E09F0710F02FEF2F8F01969AA36E
:102D700089A381E088A3DF91CF911F910F91FF90EC
:102D8000EF90DF90CF9008958097FCF683E1DBCF42
:102D90001092C9021092C8020E94660E80FD05C002
:102DA000C8010C960E94BA0BAACF82E0A8CF7F92EE
:102DB0008F929F92AF92BF92CF92DF92EF92FF924B
:102DC0000F931F93CF93DF93CDB7DEB7EC970FB67A
:102DD000F894DEBF0FBECDBF5C01E090C802F0905A
:102DE000C902E114F10409F4F5C0F7011182CE0122
:102DF000C1969CA38BA39B016901F90190812F5F70
:102E00003F4F9032C9F39F3209F46901872E962E05
:102E10001DA21EA21FA218A6F6018081A0E27A2E92
:102E2000803208F0C4C0CE0181960E94E209198266
:102E3000009709F4F7C091958195910928C120E088
:102E4000E0E088E0D1C0C30ED11C81E0913208F0EF
:102E500080E01B968C93CE0181960E94E209009738
:102E600051F729A13AA12F703327F5E0220F331F24
:102E7000FA95E1F74DA55EA56FA578A900E210E0EF
:102E8000CE0101960E94160B892B19F081E090E08B
:102E9000D2CF8981811103C083E090E0CCCF8C85B3
:102EA00083FD13C00BA11CA19E012F5F3F4FD801D2
:102EB000A801455F5F4F4A175B0709F4AEC0F901EF
:102EC00061919F019D916917B1F309A11AA10F5F4B
:102ED0001F4F11F38DA59EA5AFA5B8A90097A10519
:102EE000B105D1F298012F703327232BB9F4019645
:102EF000A11DB11D8DA79EA7AFA7B8AB69A57AA5E7
:102F00008BA59CA5F701611571058105910549F413
:102F1000848195810817190708F0BECF1AA309A369
:102F2000A0CF2281E22FE150FF0BAF019801E4E036
:102F300036952795EA95E1F724233523232B71F75E
:102F40000E94C50C623071058105910508F49ECF81
:102F5000F701268137814085518562177307840701
:102F6000950708F099CF69A77AA78BA79CA70E941D
:102F7000B7096DA77EA78FA798ABD0CF84FF8CCF62
:102F8000F70180818330F1F48D899E89B0E0A0E063
:102F9000DC01992788274B8D5C8D70E060E0842BE5
:102FA000952BA62BB72B8DA39EA3AFA3B8A7ABA140
:102FB000BCA1FD01CD010B968E179F0709F43FCFF1
:102FC0007192FACF80E090E0DC01E5CF80E090E004
:102FD000DC013DC085E090E02ECF883009F033CF92
:102FE0009BE0282FE32F892F31E03E0FEC0DFD2DC4
:102FF000F11D9081913208F426CF9F3209F423CF3E
:103000009E3259F3281708F01ECFFD01E20FF11D83
:103010009083982F81E0820FE4CFF8019385992364
:1030200009F4ACCF8981882309F436CF8C8584FDDF
:1030300033CFE091C802F091C9028081833031F62C
:103040008D899E89B0E0A0E0DC01992788274B8D0F
:103050005C8D70E060E0842B952BA62BB72BF701DD
:10306000868F978FA0A3B1A38D8D9E8DAF8DB8A1B4
:10307000828F938FA48FB58F168A178A108E118E28
:1030800081E08183F50196AA87AA90E080E0EC9622
:103090000FB6F894DEBF0FBECDBFDF91CF911F9169
:1030A0000F91FF90EF90DF90CF90BF90AF909F90E7
:1030B0008F907F900895CF93C82F8AE192E00E946D
:1030C00011088FE092E0C13031F084E192E0C2302B
:1030D00011F48AE092E0CF910C941108FC01019068
:1030E0000020E9F73197AF01481B590BBC018BE376
:1030F00093E00C94350787EC90E00C946E18CF9316
:10310000DF930E941108EC010E947B188C0F9D1F19
:10311000DF91CF910895CF93DF93EC0186EC97E098
:103120000E9411088881882331F083EB97E0DF91BA
:10313000CF910C947F188CEB97E0F9CFCF93DF936E
:10314000FC0144815581608171818BE393E00E9491
:103150003507EC010E947B188C0F9D1FDF91CF91EA
:1031600008950E947B1881EE94E29093630280930D
:1031700062020895EBE3F3E0A089B18982E08C93C9
:10318000A485B5851C92A685B78580E18C93108EA9
:10319000A489B58986E88C93A289B3898C918869C2
:1031A0008C930288F389E02D80818F7D808362E09B
:1031B0008AE00E94180961E087E10E94180960E036
:1031C00087E10E94960864E670E080E090E00E944B
:1031D000850961E087E10E94960864EF71E080E074
:1031E00090E00E9485090E947B1882E596E1909309
:1031F000C6018093C5018DEB91E00895CF93DF93D5
:103200000E946E18EC010E947B188C0F9D1FDF91AD
:10321000CF910895CF93DF93DC01FB010190002053
:10322000E9F73197E61BF70BEE23E1F0E4131AC040
:1032300080E0482F50E04E175F0770F4460F571F8D
:10324000EA014881042E000C550B405351094A30C5
:10325000510540F48F5FEDCF6E0F7F1F81E0A61701
:10326000B70708F480E0DF91CF9108952F923F9245
:103270004F925F926F927F928F929F92AF92BF9286
:10328000CF92DF92EF92FF920F931F93CF93DF9332
:103290007C013B016A0110E000E055245394442472
:1032A0004A9485EE382E95EC292E0C151D0508F054
:1032B00078C0809116038111FCCFD70114968D91AF
:1032C0009C91E601C01BD10B8C179D0708F4EC0103
:1032D000F70190818C2FC13208F080E250921603E2
:1032E00041E096012C1B3D0B0217130708F440E048
:1032F0004093150340921403109213032FEF280FED
:10330000209312035092F1022091F102990F922B17
:103310009093F1029091F0029130D1F51092F00269
:103320009091F10293B906B603FCFACF26BE9091B4
:1033300016039130E1F390911303981710F48091E4
:103340001303E2EFF2E0A0EDB2E090E0981322C0A8
:103350001092CF029093CE029C171D06B1F5430147
:10336000800E911E5401C501881999098C179D077B
:10337000A8F4D70111968D919C91DC01ED91FC91FF
:103380000284F385E02D0995F50181935F01EBCF70
:1033900036BECDCF21912D939F5FD8CF0C0F1D1F2F
:1033A00084CF81E0DF91CF911F910F91FF90EF903B
:1033B000DF90CF90BF90AF909F908F907F906F9055
:1033C0005F904F903F902F90089580E0EBCFAF92A9
:1033D000BF92CF92DF92EF92FF920F931F93CF9302
:1033E000DF93EC0169015801F12CE12C10E000E0C1
:1033F00020E00E943E11882379F0A501B601CE019C
:10340000DF91CF911F910F91FF90EF90DF90CF90C0
:10341000BF90AF900C94361980E0DF91CF911F914F
:103420000F91FF90EF90DF90CF90BF90AF900895F5
:10343000EF92FF920F931F93CF93DF9300D000D0B2
:1034400000D01F92CDB7DEB77C01FB01198207E0E7
:1034500010E09E012F5F3F4F41E050E0B9018081B5
:1034600091810E94E719E981EF77FA811B815D81E3
:103470004E814F778F81282F30E094E03595279546
:103480009A95E1F7922F990F990F291B220F280F78
:10349000D7012C93842F90E024E0959587952A9569
:1034A000E1F7982F990F990F891B880F840F1196B8
:1034B0008C931197652F70E034E0759567953A9578
:1034C000E1F7862F880F880F681B660F650F12962D
:1034D0006C931297412F50E064E0559547956A959B
:1034E000E1F7842F880F880F481B440F410F139674
:1034F0004C9313972F2F30E074E0359527957A95EC
:10350000E1F7822F880F880F281B220F2F0F1496A8
:103510002C9314978E2F90E0F4E095958795FA956B
:10352000E1F7982F990F990F891B880F8E0F159629
:103530008C93C70127960FB6F894DEBF0FBECDBFA0
:10354000DF91CF911F910F91FF90EF900895EF922F
:10355000FF920F931F93CF93DF9300D0CDB7DEB7C9
:103560007C01DC0118960C9118979C01255F3F4F58
:1035700016969C91169717968C91179799838A8324
:10358000ED91FC911197309751F110E019964C9103
:1035900050E0BE016F5F7F4FCF010E94E719882383
:1035A00021F1F701408550E030E020E060E070E07C
:1035B000CB0124173507E4F4982F872F762F662741
:1035C000D7011A96EC91E11144C0FA01E21BF30B0A
:1035D000EE0DFF1DE2856E2B2F5F3F4FEACF129657
:1035E000ED91FC911397309761F46FEF7FEFCB0172
:1035F0000F900F90DF91CF911F910F91FF90EF905F
:10360000089514966D917C91159710E019964C9140
:1036100050E06330710569F4A82FA160A9839A83F3
:103620004F5F5F4FBE016F5F7F4FCF010E94C7109A
:10363000B6CF6115710519F490689983F3CF6230A4
:10364000710511F49F77F9CF6130710559F7906CCE
:10365000F4CFF701E20FF31FE385BDCF8F929F9266
:10366000AF92BF92CF92DF92EF92FF920F931F9390
:10367000CF93DF93EC014A015B01888199810E941D
:10368000A71A2A8101E010E002C0000F111F2A953D
:10369000E2F701501109012E000C220B330BAB8114
:1036A000680179010A2E04C0CC0CDD1CEE1CFF1C45
:1036B0000A94D2F7C094D094E094F094C622D72212
:1036C000E822F922E881F981B901A80148215921AC
:1036D0006A217B2104C0440F551F661F771FAA95DE
:1036E000D2F74C295D296E297F292085CF01DF91F2
:1036F000CF911F910F91FF90EF90DF90CF90BF90EF
:10370000AF909F908F900C94BD116F927F928F928B
:103710009F92AF92BF92CF92DF92EF92FF920F9360
:103720001F93CF93DF93CDB7DEB7AE970FB6F89464
:10373000DEBF0FBECDBF7C01062F642E77247394AD
:10374000683008F4712C472D60E0C7010E943B12DD
:10375000F70182809380A080B180188A198A1A8A22
:103760001B8A9C828B82BA82A98223E0C22ED12C32
:10377000DE82CD8211E01A8798878F831B86198796
:10378000472D66E0C7010E943B121BA21CA21DA28E
:103790001EA29F8A8E8ABD8AAC8AD98EC88E1D8F42
:1037A0009B8F8A8F1E8E1C8F0770CE01019698A763
:1037B0008FA319A70AA743969CA78BA71DA70EA79F
:1037C00041E050E060E070E0F1E06F1203C040E0E3
:1037D00050E0BA01CE0187960E942E1B41E050E0D6
:1037E00060E070E082E0681619F040E050E0BA0155
:1037F000CE018B960E942E1BAE960FB6F894DEBFBC
:103800000FBECDBFDF91CF911F910F91FF90EF9031
:10381000DF90CF90BF90AF909F908F907F906F90F0
:103820000895CF92DF92EF92FF920F931F93CF9361
:10383000DF93FC01E284F384D7015F969C915F974C
:103840008DEF890F8630E0F484858823C9F08F01DD
:103850005E966C91035F1F4F963009F457C0C8F411
:103860009430B9F19530B9F140E0C8010E9454128A
:103870008FEFD7015F968C935F9781E090968C9342
:10388000DF91CF911F910F91FF90EF90DF90CF903C
:103890000895973009F456C0983031F7D12CC12CD7
:1038A000C62FD0E0AE010C2C02C0559547950A9466
:1038B000E2F7440F551F427068E06C0DC8010E948A
:1038C000851BEFEFCE1ADE0AF8E0CF16D10451F7D0
:1038D000CFCF41E0CACFD12CC12CC62FD0E0AE0152
:1038E0000C2C02C0559547950A94E2F740955095E7
:1038F000417055276C2DC8010E94851BBFEFCB1A64
:10390000DB0AE8E0CE16D10451F7B2CFD12CC12C9E
:10391000C62FD0E0AE010C2C02C0559547950A94F5
:10392000E2F7409550954170552768E06C0DC8014D
:103930000E94851BFFEFCF1ADF0A88E0C816D1046A
:1039400049F796CFD12CC12CC62FD0E0AE010C2C5C
:1039500002C0559547950A94E2F7440F551F4270EF
:103960006C2DC8010E94851BAFEFCA1ADA0AB8E0B5
:10397000CB16D10459F77CCF0F931F93CF93DF93CE
:10398000CDB7DEB763970FB6F894DEBF0FBECDBFDD
:103990008C01462F69E00E943B12F801428153815D
:1039A00020813181188A198A1A8A1B8A5C834B8389
:1039B0003A83298323E030E03E832D8321E02A8768
:1039C00098878F831B862987CE0101960E94A71AAC
:1039D000862F63960FB6F894DEBF0FBECDBFDF9182
:1039E000CF911F910F910895CF93DF93FC01C28572
:1039F000D3852F8D3FE7320F323078F4348533236F
:103A000061F00D9660E0223809F461E00E94BC1C70
:103A10008E8F8FEF8F8F81E088A3DF91CF910895F4
:103A20008F929F92AF92BF92CF92DF92EF92FF92CE
:103A30000F931F93CF93DF9300D000D000D0CDB76A
:103A4000DEB7DC011A96CD90DC901B97F601278D2E
:103A5000243831F41C962C91211115C08FEF878FDB
:103A600026960FB6F894DEBF0FBECDBFDF91CF9183
:103A70001F910F91FF90EF90DF90CF90BF90AF908C
:103A80009F908F900895D60101A0F2A1E02D9F0193
:103A90002F5F3F4F92963C932E939197E730F1051D
:103AA00008F57C01EA5AF24E0C94D7365D1D761D5E
:103AB000791D7C1D7F1D821D851DBC01635F7F4FAD
:103AC000CE0101960E94181A86E0FE013196D701B8
:103AD0001F9601900D928A95E1F7F7018489D6012E
:103AE0005E968C9381E0F60180A3BACFFC018389B6
:103AF000F6CFFC018289F3CFFC018189F0CFFC0174
:103B00008089EDCFFC018785EACF81E189831A8224
:103B100002E010E09E012F5F3F4F41E050E0B9010D
:103B2000F701858596850E94E7196A8170E086E035
:103B3000759567958A95E1F7072E000C880B990B10
:103B40000E948A3420E030E040E85EE30E94C53401
:103B50004B015C01698170E090E080E00E94883454
:103B60009B01AC01C501B4010E941C360E9488363D
:103B7000D6015E966C93B6CFCF92DF92EF92FF9212
:103B80000F931F93CF93DF9300D0CDB7DEB76C01B7
:103B90008FE08A83F12CE12C10E000E021E041E08D
:103BA00050E0BE016E5F7F4FF601808191810E94DF
:103BB0003E1141E050E0BE016F5F7F4FF601808112
:103BC00091810E94361989810F900F90DF91CF91DA
:103BD0001F910F91FF90EF90DF90CF900895CF92BB
:103BE000DF92EF92FF920F931F93CF93DF93CDB7A6
:103BF000DEB72A970FB6F894DEBF0FBECDBF6C01BB
:103C0000FB011A82198235812AE0832F622F0E94DC
:103C1000B736982F880F890F880F830F8A833481D6
:103C2000832F0E94B736982F880F890F880F830F34
:103C30008B833381832F0E94B736982F880F890F8B
:103C4000880F830F8C83428131812081622F70E045
:103C5000A42FB0E0E9E0F9E081E0831730F494911B
:103C6000A90FB11D8F5F3196F8CF333020F0822F2E
:103C7000837009F41196EDE6F1E06E9FC0016F9F2D
:103C8000900D7E9F900D112405966D5F7F4F769568
:103C9000679576956795860F971F8A0F9B1F67E03C
:103CA00070E00E94C336811101C087E08D835AE025
:103CB000842F652F0E94B736982F880F890F880FA1
:103CC000840F8E83832F0E94B736982F880F890F19
:103CD000880F830F8F83822F0E94B736982F880F0B
:103CE000890F880F820F8887F12CE12C10E000E00B
:103CF00021E048E050E0BE016F5F7F4FF601808118
:103D000091810E943E11C6010E94BC1D9FE09987CF
:103D10008F778A8721E042E050E0BE01675F7F4FE6
:103D2000F601808191810E943E112A960FB6F89487
:103D3000DEBF0FBECDBFDF91CF911F910F91FF90DE
:103D4000EF90DF90CF9008952F923F924F925F9225
:103D50006F927F928F929F92AF92BF92CF92DF929B
:103D6000EF92FF920F931F93CF93DF93DC011A968C
:103D70000D911C911B97E8012F8D2A3009F4E2C0A8
:103D80001C012B30B0F4293009F49AC0DF91CF9197
:103D90001F910F91FF90EF90DF90CF90BF90AF9069
:103DA0009F908F907F906F905F904F903F902F905B
:103DB00008952B3009F4EEC02C3041F789A19AA167
:103DC000FD01E55AFF4F6F01892B31F4808181118C
:103DD00003C0CD010E941913D6018C9181118BC1B2
:103DE000E80189A19AA18F7199272E8DF101E80F21
:103DF000F91F20AF4F9709F07EC11C92C091C802F5
:103E0000D091C902209709F462C1898180FF62C103
:103E100086FD0AC08E899F89A88DB98D88279E7FCF
:103E20008E8B9F8BA88FB98F8A8D9B8DAC8DBD8D0E
:103E30004E895F89688D798D841B950BA60BB70B16
:103E400080329105A105B10520F080E290E0A0E06C
:103E5000B0E0E8E32E0E311C7C01912C812CE114A2
:103E6000F10409F413C14E895F89688D798DCA0107
:103E70009170892B09F0D2C0BA80BA94DB01CA01D3
:103E800029E0B695A795979587952A95D1F7B822F9
:103E900009F0A4C0452B462B472B09F094C06E8D2A
:103EA0007F8D88A199A1623071058105910508F087
:103EB00091C0198281E090E0919581959109E9C0C6
:103EC0008E8DED01C55ADF4F843688F080E18883FE
:103ED000D8015F968C915F978A3029F08C3019F069
:103EE0008FEF5F968C9381E0E80188A34FCFFD01AF
:103EF000E25AFF4FD801AC5ABF4F8C91805D80834E
:103F00003296D8015E968C915E973AE0632F0E94BC
:103F1000B736805D80835E962C913196822F0E9409
:103F2000B736205DB6EF8B9F200D112420831882B9
:103F3000B101645A7F4FC1010E94D71697FFC8CFC5
:103F40008195C5CF29A13AA1A85ABF4F232B79F457
:103F50008E8D90E08D939C93D80191968D919C913C
:103F60009297019692969C938E939197B1CFFC0174
:103F7000E55AFF4F10828E8D9C91892798278927BB
:103F80008D939C93809710F082E180838FEFF801EE
:103F9000878FE2CFFC01E55AFF4F10829E8DA65A13
:103FA000BF4F9C93D8E52D0E311CD1012D913C9132
:103FB0002115324010F081E18083903208F488CFDF
:103FC00082E1808385CF6AA17BA18CA19DA10E9403
:103FD000C50C69CF6AA37BA38CA39DA36AA17BA117
:103FE0008CA19DA10E94B7096115710581059105FC
:103FF00009F45FCFAB01BC014B0D511D611D711D5B
:104000004EA35FA368A779A790E080E00E94C00A52
:10401000892B09F04ECF8981806489838E899F899D
:10402000917020E032E0281B390B57012E153F0517
:1040300008F459012501712C612CB301A501C101BE
:104040000E94C00A892B09F034CF8E899F89A88DE0
:10405000B98D840D951DA61DB71D8E8B9F8BA88FC6
:10406000B98F2A0C3B1CEA18FB088A0C9B1C2C01FC
:1040700031E05322452809F0F2CE0E94320A892B02
:1040800009F017CF89818F7B8983E9CEC40197FE20
:1040900024C08195D6018C93D80191968D919C91E5
:1040A0008F3F914040F1F6018081811121C020971E
:1040B00049F1898180FF28C086FF17C00E94320A1B
:1040C000892B99F0198281E0D6018C9311C085E08B
:1040D00090E0F2CE84E090E0EFCEB0E28B16910457
:1040E000DCF683E1F6018083D7CF89818F7B8983DA
:1040F0008FEFE8018F8FF80181A192A1019692A321
:1041000081A3E6CE85E0E0CF84E0DECFCF93DF93DE
:10411000CDB7DEB7C054D1090FB6F894DEBF0FBEDD
:10412000CDBF8BE599E00E947F186091E703709105
:10413000E80340E450E0CE0101960E948931CE01AF
:1041400001960E946E1889E599E00E941108C05CF2
:10415000DF4F0FB6F894DEBF0FBECDBFDF91CF911A
:1041600008950F931F93CF93DF93CDB7DEB7C0545D
:10417000D1090FB6F894DEBF0FBECDBF89EC90E039
:104180000E94FE1889EC90E00E94FE188091E603E0
:1041900010E005E0811114C087E499E00E947F18C7
:1041A00084E199E00E947F18C05CDF4F0FB6F8945D
:1041B000DEBF0FBECDBFDF91CF911F910F9108954C
:1041C0008091E603181780F7E091E403F091E5038E
:1041D000109FE00DF11D11246081718140E450E0D9
:1041E000CE0101960E948931CE0101960E94FE18EF
:1041F0001F5FE6CF0E94B1200C948620DC0114964C
:104200008D919C9115976817790750F4ED91FC9169
:104210001197E60FF71F15967C936E9314971082F3
:1042200008950F931F93CF93DF93EC0188819981B9
:10423000009759F02A813B812617370730F081E03B
:10424000DF91CF911F910F9108958B016F5F7F4F89
:104250000E940238009759F0998388831B830A8350
:104260002C813D81232B59F7FC011082E8CF80E09F
:10427000E7CFCF93DF93EC01198218821B821A8259
:104280001D821C8270E060E00E941121288139812A
:1042900081110FC02115310519F0C9010E9479372C
:1042A000198218821D821C821B821A82DF91CF9193
:1042B00008951D821C8269EC70E0C901DF91CF91E5
:1042C0000C94DC38CF93DF93EC0170E060E00E9447
:1042D00011212881398181110FC02115310519F073
:1042E000C9010E947937198218821D821C821B82A3
:1042F0001A82DF91CF9108951D821C8269EC70E0D3
:10430000C901DF91CF910C94DC38EF92FF920F93AB
:104310001F93CF93DF9300D0CDB7DEB78C016983B5
:104320001A82FC01E480F580FFEFEF1AFF0AB70163
:104330000E941121882381F0F8012081318184813C
:104340009581BE016F5F7F4F820F931F0E94DC3803
:10435000F801F582E48281E00F900F90DF91CF9118
:104360001F910F91FF90EF9008950F931F93CF939C
:10437000DF93CDB7DEB7C058D1090FB6F894DEBFD2
:104380000FBECDBF9E0129573F4FF9014191519179
:104390009F0160E870E0CE0101960E94DB318E0142
:1043A0000F5F1F4FF80181918F01882379F0082E4C
:1043B000000C990B0E942C08F801319780818A30FB
:1043C00089F78DE090E00E942C08ECCFC058DF4FB9
:1043D0000FB6F894DEBF0FBECDBFDF91CF911F9116
:1043E0000F910895882309F160EA7FE080E090E072
:1043F0001F921F921F921F9228EE33E040E050E080
:104400000E94A8355F934F933F932F9386ED97E0DB
:104410009F938F930E94B5218DB79EB70A960FB6D2
:10442000F8949EBF0FBE8DBF089560E47FE180E0E9
:1044300090E0DECFCF93DF93EC0104962C8D27FF25
:1044400025C09E01235E3F4F3F932F939F938F93F1
:1044500085EA92E09F938F930E94B5210F900F9071
:104460000F900F900F900F9088A987FF1CC00E949B
:104470007B1883E792E00E94110889A9882321F123
:1044800080E692E0DF91CF910C947F189F938F93F9
:1044900088E992E09F938F930E94B5210F900F902F
:1044A0000F900F90E1CF282F082E000C330B3F9375
:1044B0008F9386E892E09F938F930E94B5210F908F
:1044C0000F900F900F90D5CF89E692E0DBCFCF937E
:1044D000DF93EC018881811105C087EB92E00E9497
:1044E0007F18FFCFCE010E941A22CE0102960E94B1
:1044F0008B188B81DF91CF910C94F22184960E94CE
:1045000067220E947B1881EE94E29093630280936D
:1045100062020895CF93DF93D82FC92F9F938F9373
:1045200088EF91E09F938F930E94B5210F900F9099
:104530000F900F90ED2FFC2F88E891E0E730F10508
:1045400068F4EB55FD4D0C94D736AC22B222B5225F
:10455000B822BB22BE22C12280EF91E0DF91CF9131
:104560000C94110882EE91E0F9CF83ED91E0F6CF43
:1045700086EC91E0F3CF86EB91E0F0CF85EA91E015
:10458000EDCF82E991E0EACF1F93CF93DF93162F0F
:10459000EA0118161906BCF49195819591090E94BB
:1045A0008A22812F0E945B18209799F0DF93CF9386
:1045B0008FE192E09F938F930E94B5210F900F900F
:1045C0000F900F90FFCF009751F7DF91CF911F9180
:1045D00008950E947B18F6CFFC0185811F928F936E
:1045E00084811F928F9383811F928F93808190E0AB
:1045F0008053984F9F938F9381811F928F938281D5
:104600001F928F9385EC90E09F938F930E94B5212A
:104610008DB79EB70E960FB6F8949EBF0FBE8DBF96
:1046200008950F931F93CF93DF9300D000D000D055
:10463000CDB7DEB78C01BC01635F7F4FCE01019621
:104640000E94181A86E0FE013196D8011F9601904B
:104650000D928A95E1F783EE90E00E941108C8015F
:104660000F960E94EC220E947B1826960FB6F894B3
:10467000DEBF0FBECDBFDF91CF911F910F91089587
:10468000CF92DF92EF92FF920F931F93CF938FB74A
:10469000F894C0902402D0902502E0902602F09079
:1046A00027028FBF8091CB019091CC01A091CD01C9
:1046B000B091CE01A7019601281B390B4A0B5B0B69
:1046C000DA01C901893C9105A105B10590F080E0AE
:1046D0000E946D0861E0892B09F060E080E00E9493
:1046E0009608C092CB01D092CC01E092CD01F0921D
:1046F000CE018BE393E00E94930718161906B4F4D9
:104700008BE393E00E947107C82F082F880F110BCD
:10471000C8010E94BF38892BA9F0C8010E942C084B
:104720008091CF0181110AC0C093CF01CF911F9119
:104730000F91FF90EF90DF90CF90089580E18093EC
:10474000CF01F4CFCA3091F034F4C83009F475C009
:104750001092CF01EBCFCD3049F081E197E0CB3122
:10476000B9F70E947F180E948620F2CF8091CF0176
:10477000882351F1803111F13091E603E091E40397
:10478000F091E503C0E0082E000C990B3C1741F0B6
:104790002281CF5F359628171906C1F7C1110BC0CA
:1047A00086E697E00E947F1885E697E00E947F18D2
:1047B0000E948620C0E01092CF0109C085E897E0F2
:1047C0000E947F181092CF010E948620C0E062E014
:1047D00070E080E090E00E9485098BE393E00E9406
:1047E00093071816190664F48BE393E00E9485077B
:1047F0008A3011F08D3021F48BE393E00E94710731
:10480000CC2309F493CF8091E6038C1708F48ECF64
:10481000E091E403F091E50335E0C39FE00DF11D65
:10482000112435970380F481E02DCF911F910F91D2
:10483000FF90EF90DF90CF9009948091CF01882373
:1048400009F474CF803129F088E090E00E942C08B0
:104850007FCF87E397E00E94110884E297E081CF41
:10486000CF93DF93EC0182E097E00E947F18CE01A6
:1048700084960E946722C0E6D0E0888199810E94D8
:104880009D318134910548F086EB96E00E947F18B7
:1048900080EF96E00E947F18FFCF259680E0C33816
:1048A000D80759F780E690E09093E5038093E403FE
:1048B00087E08093E60381E097E09093E80380939C
:1048C000E7030E94B1200E94862080E493E2909347
:1048D000630280936202DF91CF910895FF920F935C
:1048E0001F93CF93DF93EC01F62E08811981C80145
:1048F0000E948335F81621F06F2DC8010E948B3578
:10490000CE01DF91CF911F910F91FF900895CF932A
:10491000DF938091BB019091BC01009709F04EC0DC
:104920001092C9021092C8020E94660EC2E0D0E046
:1049300080FD05C08EE591E00E94BA0BEC01CE012E
:104940000E948A2280E00E945B180E947B18CD2B77
:10495000D1F08BE393E00E949307181619062CF40C
:104960008BE393E00E947107F4CF8DE292E00E9406
:104970007F180E947B188BE393E00E949307181620
:104980001906CCF7CDCF83E18093AD0165E572E0E8
:104990008EEA91E00E94823187E696E19093590178
:1049A0008093580184EA9EE190935B0180935A01C1
:1049B00082E591E09093BC018093BB01DF91CF91A0
:1049C00008954F925F926F927F928F929F92AF92D3
:1049D000BF92CF92DF92EF92FF920F931F93CF93EC
:1049E000DF932C010E94DC140E94BE14320181E48A
:1049F000680E711C8201025B1F4FF80181818F9349
:104A000080818F937F926F9287EE92E09F938F9336
:104A10000E94B5210E948724EC01B3010E94D716A1
:104A20007C010F900F900F900F900F900F9097FFB9
:104A300004C0A30161E00E94C422F8010081118139
:104A400090E080E00E941A150115110519F0C801C7
:104A50000E948E156E01F8E3CF0ED11CC6010E9494
:104A6000980D4C0197FD0EC08E015C01AC0EBD1E71
:104A7000A016B106A9F1F80180AD0E944A150F5F9A
:104A80001F4FF6CFA30162E0C7010E94C422F201CA
:104A9000E05BFF4FC081D18190E080E00E941A1559
:104AA000209719F0CE010E948E1588ED92E00E94A9
:104AB0007F188CEE94E19093630280936202DF9101
:104AC000CF911F910F91FF90EF90DF90CF90BF900B
:104AD000AF909F908F907F906F905F904F900895D0
:104AE000F0E28F16910409F4B9CFD1CF8F929F9243
:104AF000AF92BF92CF92DF92EF92FF920F931F93EC
:104B0000CF93DF93CDB7DEB7CF54D1090FB6F8946A
:104B1000DEBF0FBECDBF8C018DE0ECECF0E0DE011E
:104B2000AF5BBF4F01900D928A95E1F7F80181814B
:104B30006AE00E94B736805D28968FAF2897905D17
:104B400029969FAF29970E9487247C01BE016F5B45
:104B50007F4F0E94D71697FF06C0AE014F5B5F4F95
:104B600061E00E94C422B12CA12CF8E3EF0EF11CED
:104B7000CE0101964C01C7010E94980D6C0197FD72
:104B80000DC0AC01B701C4018A0D9B1D0E94C8383D
:104B9000AC0CBD1C90E2C916D10469F360969FAEBF
:104BA0008EAE60976AEC70E0CE01825B9F4F0E94F0
:104BB000A631F0E0E0E068012DE1C20ED11C580101
:104BC00024E0A20EB11C009709F451C07F012FEF21
:104BD000E21AF20AE730F105C0F4EF50FA4D0C94F6
:104BE000D736F825FD250E2611261B2625262E262E
:104BF000BC01C5010E94DC3808C04AE050E070E00A
:104C000060E00E941D30F801648F6AEC70E0CE0114
:104C1000825B9F4F0E94A631F701D5CFBC01C60130
:104C2000E9CF40E150E070E060E00E941D30F80103
:104C300073A762A7EACF40E150E070E060E00E9415
:104C40001D30F80175A764A7E0CF4AE050E070E09E
:104C500060E00E941D30F80160ABD7CF4AE050E021
:104C600070E060E00E941D30F80161ABCECFC15B07
:104C7000DF4F0FB6F894DEBF0FBECDBFDF91CF91EF
:104C80001F910F91FF90EF90DF90CF90BF90AF906A
:104C90009F908F9008950F931F93CF93DF93CDB77D
:104CA000DEB72D970FB6F894DEBF0FBECDBF809153
:104CB000C9019091CA01009709F026C110926D02B6
:104CC00010926C0210926F0210926E0285EC92E1CB
:104CD000909371028093700282E992E19093730243
:104CE0008093720282E090E0909375028093740248
:104CF00088E792E0909379028093780290937B0208
:104D000080937A0287E892E090937D0280937C0200
:104D1000109282028FEF809383021092860210928B
:104D200085020E9408070E947A0510E00AE08DE0E3
:104D3000ECECF0E0DE01119601900D928A95E1F71E
:104D4000812F602F0E94B736805D8F83905D98879A
:104D50000E948724BE016F5F7F4F0E94D71697FF86
:104D60003AC0109388028AE090E00E948335811750
:104D7000A0F5809389028CE090E00E948335823018
:104D800088F010928A028091C4028E7F8093C402C0
:104D90008CE090E09A83898360E0CE0101960E94C6
:104DA0006E2480E080938A028DE090E00E9483353B
:104DB0008230A8F011E010938B028DE090E09A838E
:104DC000898361E0CE0101960E946E2413BD109389
:104DD0008B0282E009C01F5FAACF80E0CACF809318
:104DE0008B028111F6CF81E0815083BD88E892E08B
:104DF0000E94762504E612E08091C40290918A0216
:104E000090FB80F98093C4028DE994E19093C102F4
:104E10008093C0021093BF020093BE02E09178021B
:104E2000F09179028AEB92E093838283F093BB0244
:104E3000E093BA0228E732E03093BD022093BC022F
:104E4000909379028093780261E08EE00E941809C5
:104E500061E08EE00E94960862E082E10E941809FB
:104E600061E082E00E94180961E082E00E949608F9
:104E70000E94161582B5877F82BD85B5816085BD8C
:104E800085B5897F85BD85B5886085BD85B58F7BF6
:104E900085BD85B58F7E85BD85B58F7D85BD61E07E
:104EA0008FE00E94180961E08FE00E94960860E0A0
:104EB00083E00E94180961E080E00E94180960E028
:104EC00080E00E94960861E081E00E94180961E09C
:104ED00081E00E94960861E086E10E94180960E086
:104EE00086E10E94960862E085E10E94180962E06E
:104EF00084E10E94180962E083E10E94180910937E
:104F0000CA010093C901C8012D960FB6F894DEBFFF
:104F10000FBECDBFDF91CF911F910F910895CF9319
:104F2000DF930E944B26EC018BE393E00E949307F2
:104F3000892B59F0CB5ADF4F8881882331F060E00C
:104F400081E0DF91CF910C949608DF91CF91089585
:104F50000E949F0781110C948F270895AF92BF92F2
:104F6000CF92DF92EF92FF920F931F93CF93DF9335
:104F7000CDB7DEB7E2970FB6F894DEBF0FBECDBF58
:104F80000E944B265C010E947B1810E000E06E013D
:104F900085E0C80ED11C8DEAE82E86E0F82EF501DA
:104FA00084A180171106B9F0B0F00A83CE010196F2
:104FB0000E947625DF92CF921F930F93FF92EF927C
:104FC0000E94B5210F5F1F4F0F900F900F900F9011
:104FD0000F900F90E4CF0E948620E2960FB6F894CF
:104FE000DEBF0FBECDBFDF91CF911F910F91FF901C
:104FF000EF90DF90CF90BF90AF9008957F928F9207
:105000009F92AF92BF92CF92DF92EF92FF920F9357
:105010001F93CF93DF93CDB7DEB728970FB6F894E1
:10502000DEBF0FBECDBF0E944B268C016C0184E217
:10503000C80ED11CCE0101960E943921F80174A03E
:10504000872D8150990B7C01FF928F9387E393E02A
:105050009F938F930E94B52189EC90E00E94FE18E7
:10506000CE0101960E949E180E948620CE010196D4
:105070000E9462210F900F900F900F90B12C8BE344
:1050800093E00E94930718161906CCF78BE393E080
:105090000E947107882E082E000C99089401205355
:1050A00031092A30310580F18B3109F4A5C0C4F4EF
:1050B0008A3009F459C08D3009F456C08830F9F6A9
:1050C000BB20E9F288E090E00E942C08BA946D8140
:1050D0007E8161507109CE0101960E94FE20CFCFE2
:1050E0008D32E1F08E3221F18B3249F6B110C7CF0B
:1050F0006BE2CE0101960E9485218BE290E00E9436
:105100002C08BB24B394BBCF682FCE0101960E941C
:105110008521C4010E942C08B394B1CFB110AFCF48
:105120006DE2CE0101960E9485218DE290E0E7CFED
:10513000BB2009F4A4CF8D819E81892B69F08980E1
:105140009A806EE270E0C4010E94D138009721F08D
:105150008819990997FF93CF6EE2CE0101960E94BC
:1051600085218EE290E0D6CF62E070E080E090E0B2
:105170000E9485098BE393E00E9493071816190695
:105180000CF457C08D819E81892BD1F189819A8140
:10519000009709F45CC00E9452314B015C01B7FEDC
:1051A00059C0FF92EF92BF92AF929F928F9283E08D
:1051B00093E09F938F930E94B5210FB6F894DEBFC2
:1051C0000FBECDBF0E94862089819A810E947937C7
:1051D00028960FB6F894DEBF0FBECDBFDF91CF91FA
:1051E0001F910F91FF90EF90DF90CF90BF90AF9005
:1051F0009F908F907F900895CE0101960E9462212A
:10520000F80185A00E947B18F80185A1881569F036
:1052100085A28AE090E098878F83682DCE0107965B
:105220000E946E24C6010E947625C6010E941A22A1
:10523000C9CF8BE393E00E9485078A3019F08D3047
:1052400009F0A0CF8BE393E00E9471079BCF812CE4
:10525000912C5401872D90E0B0E0A0E088169906CB
:10526000AA06BB067CF29DCFFF920F931F93CF93AC
:10527000DF9300D0CDB7DEB70E944B268C010E9491
:105280007B18F801F7A061E0F11060E06F1581F084
:10529000F80167A38DE090E09A838983CE0101969F
:1052A0000E946E2481E0F11001C082E0815083BD34
:1052B000F80187A10E94F2210E9486200F900F9092
:1052C000DF91CF911F910F91FF9008950F931F933E
:1052D000CF93DF9300D0CDB7DEB70E944B268C0171
:1052E0000E947B18F80186A161E0811160E06817D7
:1052F00081F0F80166A3E05AFF4F808160FB80F9DE
:1053000080838CE090E09A838983CE0101960E948D
:105310006E24C80186960E948B180E9486200F90EA
:105320000F90DF91CF911F910F910895EF92FF920F
:105330000F931F93CF93DF93CDB7DEB7AF970FB621
:10534000F894DEBF0FBECDBF80914A0181110FC01E
:1053500010923D0110923C018EE391E00E943505D0
:1053600084E491E00E94350581E080934A018091B8
:10537000270181114EC085E1E9EDF0E0DE015B9689
:1053800001900D928A95E1F78AE1E9E8F0E0DE010B
:10539000119601900D928A95E1F71E8E19A21EA218
:1053A00019A61CA6CE0182960E9434319093210149
:1053B00080932001CE014F960E94343180932301C7
:1053C000CE0187960E94343180932401CE018A96C3
:1053D0000E94343180932501CE018D960E94343194
:1053E000809326017E0173E0E70EF11C11E0F701C6
:1053F000619171917F0143E050E0CE014B960E9494
:10540000E338892B09F075C01093220181E0809365
:1054100027012091260130912501409124015091CE
:105420002301609122018091200190912101803D12
:10543000F7E09F0710F0805D9740809344016093F0
:105440004501509346014093470130934801209312
:1054500049018BE691E00E94110884E491E00E94EA
:10546000EC220E947B1880913C0190913D010097B5
:1054700011F00E94793786E090E00E94DD368C01C1
:1054800088E6F801808388ED93E09283818313821C
:1054900080E290E09583848310933D0100933C016A
:1054A0000E94C408FF24F394F801F382C8010E940B
:1054B0009811811123C010923B0186E0E4E4F1E0F1
:1054C000AEE3B1E001900D928A95E1F784E491E0BA
:1054D0000E947F188FE291E0AF960FB6F894DEBF7E
:1054E0000FBECDBFDF91CF911F910F91FF90EF9035
:1054F00008951F5F1D3009F07ACF88CFF0923B01ED
:105500008CE391E00E94BC1D90E0880F892F881FDA
:10551000990B892B51F080E091E00E947F1864E4A0
:1055200071E08CE391E00E94EF1D8FE291E00E9418
:10553000112380E19DE19093360180933501CACF1C
:105540002F923F924F925F926F927F928F929F9293
:10555000AF92BF92CF92DF92EF92FF920F931F9381
:10556000CF93DF93CDB7DEB7A2970FB6F894DEBF27
:105570000FBECDBFE0905E02F0905F02E114F10437
:1055800039F40E9496297C0190935F0280935E0219
:10559000CE0145960E943921F7018485811107C00B
:1055A0000E947B1883E996E00E94110853C00E9474
:1055B0007B1888E796E00E94110889EC90E00E9431
:1055C000FE18CE0145960E949E180E948620CE01AC
:1055D00045960E94622100E08BE393E00E949307CE
:1055E00018161906CCF78BE393E00E947107182F69
:1055F000C82E880FDD08C6010E94C138892B61F0D2
:10560000003450F7612FCE0145960E948521C601D6
:105610000E942C080F5FE0CF1A3009F43FC094F4C9
:105620001830D1F60023C1F288E090E00E942C08E7
:105630000150698D7A8D61507109CE0145960E94A5
:10564000FE20CACF1D3051F11B3131F6CE014596F7
:105650000E9462210E947B18C7010E9411230E94B0
:1056600086208D899E890E947937A2960FB6F8947C
:10567000DEBF0FBECDBFDF91CF911F910F91FF9085
:10568000EF90DF90CF90BF90AF909F908F907F90E2
:105690006F905F904F903F902F90089562E070E080
:1056A00080E090E00E9485098BE393E00E949307DD
:1056B000181619060CF45CC0C98CDA8CC114D1041C
:1056C00049F286E296E0F4E1CF16D10408F049C031
:1056D0006D897E89A6018E010F5F1F4FC8010E9450
:1056E000F138F801EC0DFD1D10826DE270E0C8018B
:1056F0000E94D1384C0101969C8F8B8F6DE270E037
:105700000E94D1385C01FC013196FE8FED8F64E57B
:1057100070E0CF010E94D1386C01019698A38F8F61
:105720006AE370E00E94D1383C012C019FEF491AD6
:10573000590A6AE370E0C2010E94D1381C01F801E5
:1057400001900020E9F73197CF01801B910B9AA3BC
:1057500089A38114910419F0A114B104B9F483E070
:1057600096E00E9411080E947B1883E696E01CCF09
:105770008BE393E00E9485078A3019F08D3009F0A1
:105780009BCF8BE393E00E94710796CF82ED95E06B
:10579000C114D10431F36114710419F021143104DE
:1057A00019F48FEA95E0DDCFF401108244E0B801EE
:1057B000C4010E940A19811103C083E995E0D1CF89
:1057C000F501108242E06B8D7C8DC5010E940A19A3
:1057D000811103C086E795E0C4CFF601108242E054
:1057E0006D8D7E8DC6010E940A19811103C08BE563
:1057F00095E0B7CFF301108242E06F8D78A1C3012D
:105800000E940A19811103C08FE395E0AACFF1012C
:10581000108242E0B201C1010E940A19811103C045
:1058200081E295E09ECFFFEF2F1A3F0A89A19AA14E
:10583000019642E0B201800F911F0E940A19B82E12
:1058400083E095E0BB2009F48CCFC8010E9434317D
:105850006C018B8D9C8D0E943431A82E8D8D9E8D78
:105860000E943431982E8F8D98A10E943431882E59
:10587000C2010E943431782EC1010E943431282F98
:10588000C60183709927892B39F4C60164E670E05C
:105890000E94C336892B51F4C60160E971E00E9471
:1058A000C336BB24B394892B09F0B12CC601825BAB
:1058B00097408E359F4118F08BEC94E052CF8FEFDC
:1058C0008A0D8C3018F087E994E04BCF8FEF890D6B
:1058D0008F3118F085E694E044CF8A2D8D7F843097
:1058E00011F0893031F4FFE19F1214C085E494E097
:1058F00038CF82E0A8120EC0BB2031F09DE199158F
:1059000048F48AE194E02DCFECE18BEE93E0E915C9
:1059100008F427CFF7E188EB93E0F81508F421CFDE
:105920003BE3371518F483E893E01BCF8EE493E054
:105930002C3308F016CF80EDC81687E0D80688F41F
:10594000C982AA829B828C827D822E83F701848504
:10595000882309F47FCEB801C7010D960E94EF1D80
:1059600079CE90EDC91A97E0D90AEACF1F920F922B
:105970000FB60F9211242F933F934F935F936F9322
:105980007F938F939F93AF93BF93EF93FF938BE39B
:1059900093E00E94A907FF91EF91BF91AF919F9172
:1059A0008F917F916F915F914F913F912F910F90C8
:1059B0000FBE0F901F9018951F920F920FB60F9267
:1059C00011242F938F939F93EF93FF93E0914B03B9
:1059D000F0914C038081E0915103F091520382FDDC
:1059E0001BC09081809154038F5F8F73209155036A
:1059F000821741F0E0915403F0E0E55CFC4F958F95
:105A000080935403FF91EF919F918F912F910F906D
:105A10000FBE0F901F9018958081F4CF1F920F92A8
:105A20000FB60F9211242F933F938F939F93AF93B1
:105A3000BF938091240290912502A0912602B091FB
:105A400027023091230223E0230F2D3768F126E847
:105A5000230F0296A11DB11D2093230280932402DF
:105A600090932502A0932602B093270280912802EA
:105A700090912902A0912A02B0912B020196A11DBA
:105A8000B11D8093280290932902A0932A02B0931B
:105A90002B02BF91AF919F918F913F912F910F90CA
:105AA0000FBE0F901F9018950196A11DB11DD4CF68
:105AB0001F920F920FB60F9211242F933F934F9383
:105AC0005F936F937F938F939F93AF93BF93EF9366
:105AD000FF9381B1887F803609F44AC0F0F588329F
