:020000040000FA
:100000000C94AF040C94D7040C94D7040C94D7042C
:100010000C94D7040C94D7040C94D7040C94D704F4
:100020000C94D7040C94D7040C94D7040C94652C2E
:100030000C94D7040C94332C0C940D2C0C94D704F2
:100040000C94D7040C94D7040C94D7040C94AF2CC4
:100050000C94D7043F202D2048656C700078202D2B
:1000600020457869740074202D2041646A7573748A
:10007000205254430063202D20546F67676C652025
:10008000434C4B204D6F64650061202D20546F67F9
:10009000676C65204155544F45584543006C202DF1
:1000A000204C69737420426F6F74204D6F6465003B
:1000B00062202D204368616E676520426F6F742057
:1000C0004D6F6465000A57726F6E672056616C75DC
:1000D000652025642E2049742073686F756C642038
:1000E00062652030203C3D20626F6F745F6D6F64ED
:1000F00065203C3D2025640A000A4D42433A2042D7
:100100004F4F54204D4F4445205B302D25645D00FA
:10011000202D3E205365636F6E64206F7574206FD1
:10012000662072616E67652C206974206D7573742A
:10013000206265206265747765656E203020616E8F
:100140006420353900202D3E204D696E7574652080
:100150006F7574206F662072616E67652C206974FC
:10016000206D757374206265206265747765656EB5
:10017000203020616E6420353900202D3E20486FEC
:100180007572206F7574206F662072616E67652CC2
:10019000206974206D7573742062652062657477C0
:1001A00065656E203020616E6420323300202D3E64
:1001B000204665627275617279206F6E6C79206875
:1001C00061732032382064617973206F7574206FF9
:1001D00066206C656170207965617200202D3E207B
:1001E0004665627275617279206F6E6C7920686104
:1001F00073203239206461797320696E206C6561E7
:1002000070207965617200202D3E2074686973202A
:100210006D6F6E7468206F6E6C7920686173203327
:1002200030206461797300202D3E20446179206F75
:100230007574206F662072616E67652C206974206A
:100240006D757374206265206265747765656E20D4
:100250003120616E6420333100202D3E204D6F6EC1
:100260007468206F7574206F662072616E67652CEC
:10027000206974206D7573742062652062657477DF
:1002800065656E203120616E6420313200202D3E84
:100290002059656172206F7574206F662072616EDF
:1002A00067652C206974206D757374206265206207
:1002B00065747765656E203139373020616E642052
:1002C0003939393900202D3E205365636F6E642023
:1002D0006669656C6420666F726D61742065727208
:1002E0006F7200202D3E204D696E75746520666921
:1002F000656C6420666F726D6174206572726F72D6
:1003000000202D3E20486F7572206669656C642060
:10031000666F726D6174206572726F7200202D3E7F
:1003200020446179206669656C6420666F726D6136
:1003300074206572726F7200202D3E204D6F6E74B6
:1003400068206669656C6420666F726D61742065F3
:1003500072726F7200202D3E2059656172206669AD
:10036000656C6420666F726D6174206572726F7265
:1003700000202D3E204572726F72206F66206465EA
:100380006C696D6974657220273A2720696E207444
:10039000696D6500202D3E204572726F72206F6678
:1003A0002064656C696D697465722027542720424A
:1003B00065747765656E206461746520616E642084
:1003C00074696D6500202D3E204572726F72206F3A
:1003D000662064656C696D6974657220272D27201D
:1003E000696E206461746500202D3E20746F6F205B
:1003F0006D616E79206368617261637465727320E8
:100400002120286F6E6C7920313920636861722950
:1004100020414141412D4D4D2D44445468683A6D71
:100420006D3A7373004D42433A204D616C666F72B2
:100430006D656420696E707574004D42433A205BAF
:10044000595959592D4D4D2D44445468683A6D6D94
:100450003A73735D004D42433A205254432069730E
:10046000204E4F5420617661696C61626C65002595
:1004700075202D2025730A004D6178696D756D20FA
:100480006E756D626572206F66206368617261636C
:100490007465727320697320726561636865642096
:1004A000696E206120636F6D6D616E642074657884
:1004B00074004D42433A204D454E55204661696CCB
:1004C000656400004D42433A20426F6F742D4D65C4
:1004D0006E7500202D3E2063616E63656C6C6174E7
:1004E000696F6E202100202D3E2063616E63656C74
:1004F0006C6174696F6E202100202D3E20746F6F37
:10050000206D616E7920617267756D656E74732000
:100510002120286F6E652063686172616374657263
:10052000206F6E6C79290000202D3E204E6F2063D5
:100530006F6D6D616E6420636F6465206D617463BF
:1005400068696E67202100202D3E20746F6F206D3A
:10055000616E7920617267756D656E7473202120FC
:10056000286F6E6520636861726163746572206FC5
:100570006E6C79290020202020202E2E2E20446F02
:100580006E652E004D42433A204C6F6164696E6780
:1005900020257340307825303458202E2E2E0A0026
:1005A000253032752F253032752F253034752025B2
:1005B0003032753A253032753A253032750044456F
:1005C000563A20445332333133205254432044614D
:1005D00074652F54696D65202D20004445563A20DE
:1005E0004453323331332052544320446174652FD5
:1005F00054696D65202D204661696C7572652120F6
:10060000436F6D70696C656420446174652F546933
:100610006D65206973206170706C6965642E00449B
:1006200045563A2044533233313320525443204408
:100630006174652F54696D65202D204E6F742046BE
:100640006F756E642E004445563A20436F6D706995
:100650006C656420446174652F54696D65202020A9
:100660002D200028554E4B4E4F574E2900284652FC
:100670005F4E4F5F46494C4553595354454D2900F1
:100680002846525F4E4F545F454E41424C454429E7
:10069000002846525F4E4F545F4F50454E45442907
:1006A000002846525F4E4F5F46494C452900284678
:1006B000525F4E4F545F52454144592900284652DB
:1006C0005F4449534B5F45525229002846525F4FC1
:1006D0004B29004445563A205344206572726F728C
:1006E000202575200052454144004F50454E004D95
:1006F0004F554E5400206F6E2000202D2046696C0F
:1007000065203A2025730A004445563A204368651F
:10071000636B20534420616E642070726573732094
:1007200061206B657920746F20726570656174005B
:100730004453784E79792E44534B0020656E6162A4
:100740006C6564002064697361626C656400494F84
:10075000533A2073657269616C4576656E74202D1D
:1007600000202F204469736B2D536574202D2025A4
:10077000640A00494F533A204657202D2025730024
:10078000494F533A204657202D20257320282573A2
:100790002900494F533A204D697373696E672042AF
:1007A0004F4F544D4F78782E4346472066696C650D
:1007B00073210020656E61626C656400206469735A
:1007C00061626C656400494F533A204155544F456E
:1007D000584543202D00494F533A20434C4B202D80
:1007E00020256C752E2530336C75204D487A00001D
:1007F000003A0037003400310000003B003800357B
:1008000000320000003900360033003000020202DE
:1008100002020202020404040404040404030303A5
:1008200003030303030101010101010101010204AA
:1008300008102040800102040810204080010204BA
:1008400008102040800102040810204080000000B1
:100850000200000000000000000504000700000086
:100860000000000000000000000000000020202028
:10087000202D20526163636F6F6E2773204D4F44AC
:1008800000494F53202D20492F4F20537562737913
:100890007374656D202D20533232303731382D522C
:1008A000323430363230005A38302D4D4243322007
:1008B0002D204130343036313820004445563A201E
:1008C0004D43503233303137204750494F2045781F
:1008D00070616E646572202D20466F756E642E0007
:1008E0004445563A204D435032333031372047503B
:1008F000494F20457870616E646572202D204E6FDF
:100900007420466F756E642E001F1C1F1E1F1E1F55
:100910001F1E1F1E496E74657266616365206D69D6
:100920007374616B652077697468206C69627261A9
:1009300072792053657269616C53657269616C4D9F
:10094000656E75436D64004E6F204D656E75206950
:100950006E206D656D6F7279003E0000C52D11240B
:100960001FBECFE5D8E0DEBFCDBF23E0AEE1B1E0F2
:1009700001C01D92AE3EB207E1F711E0A0E6B0E083
:10098000E8EBF0E702C005900D92AE31B107D9F760
:1009900014E0CFEAD4E004C02197FE010E94313672
:1009A000CE3AD107C9F70E94032E0C945A380C9402
:1009B0000000982F2091360381E0213208F040C0DA
:1009C000809112038111FCCF8091350332E0309386
:1009D0001203909311039FEF9093100310920F0353
:1009E00020930E03A5E1B3E0EEEEF2E090E02913D0
:1009F0002EC01092ED029091ED02880F892B80930A
:100A0000ED028091EC02813031F51092EC02809180
:100A1000ED0283B906B603FCFACF85EC86BF809160
:100A200012038230E1F3809110038F3FB1F0809187
:100A300010038032A1F080911003803391F084E0A4
:100A400010921403109236031092130308953D91EF
:100A500031939F5FCCCF85EEE1CF80E0F1CF82E094
:100A6000EFCF83E0EDCF08950895DC0115961C9239
:100A7000159714961C92149713961C9213971C9218
:100A800081E011968C93119711968C9111978C306F
:100A900070F4282F2150330BF901E75FF64FE491F2
:100AA000823009F4EF5FE11102C08F5FEACF81E08D
:100AB00012968C930895CF93DF93FC01C081D1816E
:100AC000209769F088859985892B69F4EE85FF85E3
:100AD000309769F040E070E060E0CE010995CE010A
:100AE000DF91CF9108950E80DF81C02DE9CFD0E056
:100AF000C0E0F5CF0F931F93CF93DF93FC01C0812C
:100B0000D1812097D1F088859985892B89F4EC854E
:100B1000FD85309791F08B0170E060E0CE01099582
:100B2000F8018083CE01DF91CF911F910F9108953D
:100B30000E80DF81C02D209731F7FB011082D0E0BD
:100B4000C0E0F0CFCF92DF92EF92FF920F931F930E
:100B5000CF93DF9320916A0230916B02409168023B
:100B600050916902D0E0C0E0ACE7B2E0ED91FC91B9
:100B700011973097A9F080859185DF011696281787
:100B8000390740F0828593858417950708F071C076
:100B9000DF011496EF01ED91FC911197309759F711
:100BA000AE010D2E000C660B770B40936002509344
:100BB0006102609362027093630210926502109268
:100BC0006402109267021092660280E692E08D93B2
:100BD0009C93209709F439C18881998180FD49C08F
:100BE00060E672E09C01FC01448155814C175D0771
:100BF00009F473C04115510521F0DA018C9180FF91
:100C000041C0AC81BD816A177B0709F4C1C0B783BD
:100C1000A683FD83EC83109751F02160A901330F67
:100C2000660B770B4D935D936D937C931397408187
:100C3000518162817381DA01AC7F488359836A8371
:100C40007B83AE010D2E000C660B770B4083518326
:100C500062837383109709F496C016968D919C91C8
:100C60001797E817F90709F4BAC01596DC93CE93E5
:100C70001497DF91CF911F910F91FF90EF90DF902C
:100C8000CF900895C90181608C01990F220B330B1D
:100C90000D931D932D933C931397088319832A83F7
:100CA0003B83C081D181CC7FCE010D2E000CAA0BDD
:100CB000BB0B80839183A283B383209709F4C7C0C1
:100CC00088819981BF0180FDD4CF9C01FC014481C2
:100CD00055814C175D0709F08DCFA681B78110971C
:100CE00019F08C9180FF3FC0DA011696CD91DC910E
:100CF0006C177D0709F478C0D583C483DA01179691
:100D0000FC93EE931697209751F0C9018160092E4C
:100D1000000CAA0BBB0B88839983AA83BB83008139
:100D2000118122813381D801AC7FEA0108831983C4
:100D30002A833B838A01052E000C220B330B008390
:100D4000118322833383109709F475C016968D9111
:100D50009C911797E817F90709F472C015965C93F0
:100D60004E93149786CFA9014160052E000C660BA7
:100D7000770B4D935D936D937C93139748835983C1
:100D80006A837B838ECFD0937D02C0937C0271CF28
:100D9000DB0116968D919C9117979D838C831796F6
:100DA000DC93CE931697009769F06E016894C0F8B3
:100DB0000D2C000CEE08FF08DC01CD92DD92ED92C7
:100DC000FC921397CB01072E000CAA0BBB0B888358
:100DD0009983AA83BB83EB01AC81BD8118CF1796A1
:100DE000DC93CE93169745CFEB01AC81BD81EA0130
:100DF000BF83AE83EB015D834C83109761F06A0182
:100E00006894C0F80D2C000CEE08FF08CD92DD921E
:100E1000ED92FC921397CB01072E000CAA0BBB0B93
:100E2000EA0188839983AA83BB83DB011696CD915F
:100E3000DC91AB0161CF50937D0240937C0219CFCE
:100E400017965C934E93169714CFE0E6F2E081E09C
:100E500090E0A0E0B0E080839183A283B38309CFC8
:100E600010927D0210927C020895AF92BF92CF92B1
:100E7000DF92EF92FF920F931F93CF93DF936C015A
:100E80007B018B01040F151FEB015E01AE18BF083B
:100E9000C017D10759F06991D601ED91FC910190ED
:100EA000F081E02DC6010995892B79F7C501DF9105
:100EB000CF911F910F91FF90EF90DF90CF90BF9057
:100EC000AF900895FC01538D448D252F30E0842F81
:100ED00090E0821B930B541710F0CF960895019762
:100EE0000895FC01918D828D981761F0A28DAE0F4F
:100EF000BF2FB11D5D968C91928D9F5F9F73928FD6
:100F000090E008958FEF9FEF0895FC01918D828D01
:100F1000981731F0828DE80FF11D858D90E00895CE
:100F20008FEF9FEF0895FC01918D228D892F90E026
:100F3000805C9F4F821B91098F739927089587E3E7
:100F400093E00E94930721E0892B09F420E0822F8F
:100F50000895FC01A48DA80FB92FB11DA35ABF4F4E
:100F60002C91848D90E001968F739927848FA689A8
:100F7000B7892C93A089B1898C9180648C93938DCF
:100F8000848D981306C00288F389E02D80818F7DBF
:100F900080830895EF92FF920F931F93CF93DF9377
:100FA000EC0181E0888F9B8D8C8D981316C0E889A9
:100FB000F989808185FF11C0EE89FF896083E88906
:100FC000F98980818064808381E090E0DF91CF9116
:100FD0001F910F91FF90EF900895F62E0B8D10E06A
:100FE0000F5F1F4F0F731127E02E8C8D8E110CC0D9
:100FF0000FB607FCFACFE889F989808185FFF5CF24
:10100000CE010E94A907F1CFEB8DEC0FFD2FF11D52
:10101000E35AFF4FF0820B8FEA89FB89808180625F
:10102000D2CF0F931F93CF93DF938C01D0E0C0E01A
:10103000F801EC0FFD1F6491662341F087E393E014
:101040000E94CA07892B11F02196F2CFCE01DF91C1
:10105000CF911F910F910895682F87E393E00C942F
:10106000CA07CF93DF93EC01888D8823B9F0AA8952
:10107000BB89E889F9898C9185FD03C0808186FD53
:101080000DC00FB607FCF7CF8C9185FFF2CF8081A2
:1010900085FFEDCFCE010E94A907E9CFDF91CF9167
:1010A0000895843059F028F4813099F0823089F025
:1010B0000895853039F0873041F008958FB58F77E6
:1010C0008FBD08958FB58F7DFBCF85B58F7D85BD95
:1010D000089583B78F7D83BF0895CF93DF93282F23
:1010E00030E0F901E35BF74F8491F901E35DF74FDD
:1010F000D491F901E35FF74FC491CC23A1F08111A2
:101100000E945108EC2FF0E0EE0FFF1FED5FF74F4C
:10111000A591B491EC91ED2381E090E009F480E099
:10112000DF91CF91089580E090E0FACF1F93CF93A5
:10113000DF93282F30E0F901E35BF74F8491F90149
:10114000E35DF74FD491F901E35FF74FC491CC23EE
:10115000A9F0162F81110E945108EC2FF0E0EE0F3C
:10116000FF1FE750F84FA591B4918FB7F894EC9119
:10117000111108C0D095DE23DC938FBFDF91CF9192
:101180001F910895DE2BF8CF1092CB021092CA0265
:1011900010921403109236031092120381E0809390
:1011A00011031092EC0261E081E10E94960861E077
:1011B00080E10E9496080898099888E480B985E43F
:1011C00086BF83E395E09093C7028093C60284E3D1
:1011D00095E09093C5028093C4020895CF93DF9366
:1011E000FC01C285D3858F8D8D3071F49E8D8485F1
:1011F000891751F09487913099F048F09230B1F00E
:101200008FEF8F8F81E088A3DF91CF91089561E008
:101210008CE00E94960860E08BE00E949608F0CF78
:1012200061E08CE00E94960861E0F6CF60E0F9CFC3
:10123000CF93DF9390E0FC01E35DF74F2491835F50
:10124000974FFC0184918823C9F090E0880F991F83
:10125000FC01E151F84FA591B491FC01E750F84F22
:10126000C591D49161110DC09FB7F8948C912095D0
:1012700082238C938881282328839FBFDF91CF917D
:101280000895623051F49FB7F8943C91822F809575
:1012900083238C93E8812E2BEFCF8FB7F894EC91BA
:1012A0002E2B2C938FBFEACF8230910538F0880F18
:1012B000991F880F991F05970197F1F708953FB778
:1012C000F8948091240290912502A0912602B09179
:1012D000270222B708B600FE05C02F3F19F001967D
:1012E000A11DB11D3FBFBA2FA92F982F8827BC0180
:1012F000CD01620F711D811D911D42E0660F771FA8
:10130000881F991F4A95D1F708958F929F92AF92A7
:10131000BF92CF92DF92EF92FF924B015C010E944D
:101320005F096B017C010E945F096C197D098E09C0
:101330009F09683E734081059105A8F321E0821A58
:101340009108A108B10888EEC80E83E0D81EE11C00
:10135000F11C81149104A104B10429F7FF90EF90CE
:10136000DF90CF90BF90AF909F908F9008950F9394
:101370001F93E091C802F091C9029B01AC01225079
:1013800031094109510986819781A085B18502976C
:10139000A109B109281739074A075B0778F4A28128
:1013A000B0E00E9424350289138924893589600FB1
:1013B000711F821F931F1F910F91089560E070E0CD
:1013C000CB01F9CF0F931F93CF93DF93EC01E09103
:1013D000C802F091C902198218826C817D818E81C8
:1013E0009F81613071058105910581F10681178129
:1013F00020853185601771078207930738F56115DD
:1014000071058105910539F42081233021F4668529
:10141000778580899189688779878A879B87611515
:1014200071058105910569F00E94B7096C877D8778
:101430008E879F8790E080E0DF91CF911F910F9181
:1014400008956685778580899189F0CF81E090E065
:10145000F3CF8FB9779BFECF08958FEF0E94290AB3
:101460008FB108950F931F93CF93DF93C0911D0207
:10147000D0911E022197CD3F8FEFD80721F080E059
:101480000E94290AF7CF0E942D0A8F71853079F0CA
:10149000D1E0C0E061E084E00E9496080E942D0A3D
:1014A0008D2F9C2FDF91CF911F910F91089508E808
:1014B00013E1C0E9D1E00E942D0A8F3F49F00115E8
:1014C000110531F3CE010197F1F701501109F3CF66
:1014D000D1E0C0E0012BF1F2D0E0DCCFFF920F931E
:1014E0001F93CF93DF93C82FD42F152F062FF72EDE
:1014F00080911C0281113FC083E58DB91EB8C7FFE2
:1015000009C040E050E0BA0187E70E946E0A8230CD
:1015100060F5CF7761E084E00E9496080E942D0A72
:1015200060E084E00E9496080E942D0A8C2F0E94A1
:10153000290A8F2D0E94290A802F0E94290A812FB3
:101540000E94290A8D2F0E94290A85E9C03421F0C2
:1015500087E8C83409F081E00E94290ACAE00E94A5
:101560002D0A87FF02C0C150D1F7DF91CF911F91A3
:101570000F91FF90089580E58DB981E08EB9BFCFBE
:10158000EF92FF920F931F93CF93DF930097C9F0D1
:10159000EA018C012097B1F1E0901D02F0901E024B
:1015A000E114F10479F1F80181918F010E94290A77
:1015B000F1E0EF1AF108F0921E02E0921D0221976D
:1015C000E9CF411551056105710529F180911C0292
:1015D00083FD07C089E0440F551F661F771F8A955A
:1015E000D1F788E50E946E0A81111DC08FEF0E941D
:1015F000290A8EEF0E94290A80E092E090931E0251
:1016000080931D0290E080E0DF91CF911F910F91B8
:10161000FF90EF900895DF91CF911F910F91FF9070
:10162000EF900C94320A81E090E0EECFCF92DF92FF
:10163000EF92FF920F931F93CF93DF937C01690189
:1016400080911C0283FD07C089E0440F551F661F6F
:10165000771F8A95D1F781E50E946E0A811108C033
:10166000C0E4DCE90E942D0A8F3F29F42197D1F7CD
:10167000C1E0D0E022C08E3FD9F7C2E0D2E0C01B6B
:10168000D10BCC19DD0981E0C81AD10818F00E94ED
:101690002D0AF9CFE114F10401F10E0D1F1D0E9476
:1016A0002D0AF70181937F010E171F07C1F70E94D2
:1016B0002D0A2197E1F7D0E0C0E061E084E00E94CC
:1016C00096080E942D0ACE01DF91CF911F910F91B4
:1016D000FF90EF90DF90CF9008950E942D0A015067
:1016E0001109D9F7E4CFCF92DF92EF92FF920F93D7
:1016F0001F93CF93DF93EC016A017B0102E010E0BE
:101700002EEF31E00E94160B892B31F588819981EB
:1017100085359A4A59F526E330E0B701A601CE0196
:101720000E94160B892B29F4888199818634914473
:1017300089F002E010E022E530E0B701A601CE0119
:101740000E94160B892BA1F481E02881398126346F
:10175000314419F480E001C083E0DF91CF911F9103
:101760000F91FF90EF90DF90CF90089582E0F5CF3A
:1017700081E0F3CF2F923F924F925F926F927F92D0
:101780008F929F92AF92BF92CF92DF92EF92FF9291
:101790000F931F93CF93DF93CDB7DEB7A4970FB608
:1017A000F894DEBF0FBECDBF1C0140E050E0BA018F
:1017B000CE0101960E94730B412C512C32018130D5
:1017C000C1F500E110E02EEB31E040E050E0BA015D
:1017D000CE0101960E94160B892BD9F081E090E092
:1017E000A4960FB6F894DEBF0FBECDBFDF91CF91A8
:1017F0001F910F91FF90EF90DF90CF90BF90AF902F
:101800009F908F907F906F905F904F903F902F9020
:1018100008958D81811103C086E090E0E1CF498475
:101820005A846B847C84B301A201CE0101960E948C
:10183000730B833099F28111EFCF04E210E02DE0B9
:1018400030E0B301A201CE0101960E94160B892B54
:1018500029F62A853B8550E040E0211531054105F8
:10186000510521F4288D398D4A8D5B8DAC81B0E016
:101870000E9424354B015C014A815B8170E060E08D
:10188000440E551E661E771EF101428653866486FD
:10189000758629812283CD80DE80D582C4828F81A6
:1018A0009885B0E0A0E00097A105B10521F48C89EE
:1018B0009D89AE89BF8934E0D694C7943A95E1F703
:1018C000F12CE12C841B950BA60BB70BBC01CD01B1
:1018D000681979098A099B096C197D098E099F0984
:1018E00030E050E040E00E940235DA01C901029682
:1018F000A11DB11DF10186839783A087B187265F63
:101900003F40410951092F3F3F4E4105510580F0AD
:10191000873F9F4FA105B10580F47ECF82E0F101A2
:101920008083D501C401840D951DA61DB71D0CC073
:10193000873F9F4FA105B10588F383E0F1018083C4
:1019400088A199A1AAA1BBA186879787A08BB18BFB
:10195000C40CD51CE61CF71CC80CD91CEA1CFB1CCB
:10196000F101C28AD38AE48AF58A11823092C902CF
:101970002092C80290E080E033CF0F931F93CF9363
:10198000DF9300D000D0CDB7DEB76230710581059E
:10199000910528F461E070E080E090E055C0E091AE
:1019A000C802F091C9020681178120853185601730
:1019B00071078207930770F7AB01BC018081823009
:1019C00031F1833039F79A012F773327220F331FF4
:1019D000220F331F97E076956795579547959A950F
:1019E000D1F782859385A485B585480F591F6A1F55
:1019F0007B1F04E010E0CE0101960E94160B892B9C
:101A000049F669817A818B819C819F701DC09A0102
:101A10003327220F331F452F562F672F77278285B5
:101A20009385A485B585480F591F6A1F7B1F02E067
:101A300010E0CE0101960E94160B892B09F0AACF67
:101A400069817A8190E080E00F900F900F900F9065
:101A5000DF91CF911F910F9108954F925F926F92F6
:101A60007F928F929F92AF92BF92CF92DF92EF922E
:101A7000FF920F931F93CF93DF93C091C802D09131
:101A8000C902209709F4B1C0298120FFB1C0CA8CD6
:101A9000DB8CEC8CFD8C4E895F89688D798DC41A46
:101AA000D50AE60AF70A20E2C216D104E104F104DD
:101AB00028F040E2C42ED12CE12CF12C3C014C0149
:101AC000F12CE12C412C32E0532EC114D10409F445
:101AD0007AC08E899F89A88DB98DAC01BD015170E6
:101AE00066277727452B462B472B09F03FC0BA8046
:101AF000BA94AC01BD0129E0769567955795479555
:101B00002A95D1F7B422F9F4892B8A2B8B2B81F4F7
:101B10006E8D7F8D88A199A1623071058105910537
:101B200070F4198281E090E09195819591094CC003
:101B30006AA17BA18CA19DA10E94BD0CEDCF6AA3DF
:101B40007BA38CA39DA36AA17BA18CA19DA10E94D4
:101B5000B709611571058105910519F36B0D711DAB
:101B6000811D911D6EA37FA388A799A72E893F8908
:101B70003170C201821B930B56018C159D0508F430
:101B80005C014EA15FA168A579A5C401611471042F
:101B900011F480E090E085010E94160B892B09F674
:101BA0008E899F89A88DB98D8A0D9B1DA11DB11DA0
:101BB0008E8B9F8BA88FB98F8A0C9B1CCA18DB0851
:101BC000EA0CFB1C82CFC701DF91CF911F910F91CF
:101BD000FF90EF90DF90CF90BF90AF909F908F904D
:101BE0007F906F905F904F90089585E090E09CCF3C
:101BF00084E090E099CFAF92BF92CF92DF92EF92C4
:101C0000FF920F931F93CF93DF9300D000D0CDB7F7
:101C1000DEB780911C02882339F084E00E946D08B1
:101C2000892B11F40E94320A61E084E00E94960838
:101C300061E084E00E94180961E085E00E941809D3
:101C400061E087E00E94180961E084E00E941809C1
:101C500083E58DB91EB861E084E00E9496081AE021
:101C60000E942D0A1150E1F740E050E0BA0180E4F3
:101C70000E946E0A182F8130D9F010E010931C02D8
:101C800061E084E00E9496080E942D0A81E0111113
:101C900080E00F900F900F900F90DF91CF911F91E8
:101CA0000F91FF90EF90DF90CF90BF90AF9008958D
:101CB0004AEA51E060E070E088E40E946E0A8130F8
:101CC00079F5CE0101967C016E0195E0C90ED11C1B
:101CD00087010E942D0AF80181938F01CE16DF063D
:101CE000C1F78B81813049F68C818A3A31F620E147
:101CF000C22E27E2D22E30E9A32EBB24B39440E0BB
:101D000050E060E070E489EE0E946E0A882359F189
:101D1000C5010197F1F7F1E0CF1AD10881F7ADCFF6
:101D200040E050E0BA0189EE0E946E0A01E4823080
:101D300010F412E009EE80E1E82E87E2F82E90E937
:101D4000C92EDD24D39440E050E0BA01802F0E94D8
:101D50006E0A8823F1F0C6010197F1F7F1E0EF1A5E
:101D6000F10889F78ACF40E050E0BA018AE70E9483
:101D70006E0A811182CF0E942D0AF70181937F01A3
:101D80000E171F07C1F789811CE086FD77CF14E08D
:101D900075CF40E052E060E070E080E50E946E0A9E
:101DA000882309F46BCF69CF85ED86BF06B604FCA6
:101DB000FDCF1092120308952091F901260F3327C9
:101DC000331F21323105ECF420911203FC0190E025
:101DD00080E0243069F082E00895A091F90121911A
:101DE000AC0147525E4FA40FB52FB11D2C93019645
:101DF000861798F38091F901680F6093F90180E0EC
:101E0000089581E008950895E091CB028091CA027F
:101E1000E81730F4F0E0E453FD4F808190E008953E
:101E20008FEF9FEF08959091CB028091CA022FEF20
:101E30003FEF981748F4E92FF0E0E453FD4F20817D
:101E400030E09F5F9093CB02C90108958091CA0250
:101E50009091CB02891B990B0895CF92DF92EF925C
:101E6000FF920F931F93CF93DF937C01CB018A01E5
:101E700020911303222389F0EB016B01C40ED51EC0
:101E8000CC15DD0569F06991D701ED91FC910190C8
:101E9000F081E02DC7010995F3CF642F0E94DC0E7D
:101EA000C801DF91CF911F910F91FF90EF90DF90CC
:101EB000CF900895CF93DF931F92CDB7DEB769839C
:101EC000209113032223F9F020913603203258F099
:101ED00021E030E0FC013383228390E080E00F902A
:101EE000DF91CF91089580911403E82FF0E0EB5E2D
:101EF000FC4F998190838F5F809314038093360306
:101F000081E090E0ECCF61E0CE0101960E94DC0E12
:101F1000F7CF90E080E00895FC0183858F3F19F0B2
:101F200061E00C9496080895FC0180819181892BD1
:101F300039F0A281B3819C9111968C919DB98EB993
:101F400083858F3F19F060E00C9496080895AF9256
:101F5000BF92CF92DF92EF92FF920F931F93CF9396
:101F6000DF93EC0188819981892B81F06FB9779B90
:101F7000FECFBFB08B2DDF91CF911F910F91FF90BE
:101F8000EF90DF90CF90BF90AF90089588859985AE
:101F900011E0892B09F010E8AA24A394862F81234D
:101FA00009F0A12C062F2C813D814E815F8160E2DA
:101FB00071EA87E090E00E940235F22EB02EE12C0B
:101FC000C22ED12CFF2019F0C6010E9454098A8527
:101FD000877F09F042C08D858F3F89F0902F912334
:101FE00081E009F480E08A1551F0EF85F8898F8946
:101FF000992369F19081892B8083AA24A394E9898C
:10200000FA898081998D892B8083FF2019F0C60180
:102010000E9454098E858F3F39F0EB89FC898081BD
:10202000988D892309F0E12AE989FA899081898DBF
:102030008095892380838E858F3F09F0BE2C88850B
:102040009985892BB9F5110F1111BCCF93CF9081D0
:10205000809589238083A12CD2CFE989FA89808158
:10206000998D892B8083FF2019F0C6010E945409A5
:102070008D858F3F49F0EF85F8898F89902F9123C7
:10208000A9F09081892B8083E989FA899081898DD3
:102090008095892380838E858F3F69F2EB89FC8947
:1020A0008081988D892339F2E12AC5CF908180956E
:1020B0008923E9CF1695C8CF8F929F92AF92BF9296
:1020C000CF92DF92EF92FF920F931F93CF93DF9304
:1020D0007C014B016A01B22EA32E0E94940FE401F1
:1020E000C80CD91CCC15DD0569F4CB2DDA2D0C0FED
:1020F0001D1FC017D10759F06FEFC7010E94A70F2E
:102100008993F7CF6991C7010E94A70FEBCFC70151
:102110000E948C0F81E0DF91CF911F910F91FF9072
:10212000EF90DF90CF90BF90AF909F908F900895E9
:102130008F929F92AF92BF92CF92DF92EF92FF92D7
:102140000F931F93CF93DF937C01B62EA72E6A01C6
:1021500049010E94940FE401080D191DC017D10711
:1021600061F4CB2DDA2DCC0EDD1ECC15DD0551F042
:102170006991C7010E94A70FF8CF6991C7010E941A
:10218000A70FECCFC7010E948C0F81E0DF91CF91A8
:102190001F910F91FF90EF90DF90CF90BF90AF9085
:1021A0009F908F9008958F929F92BF92CF92DF92CF
:1021B000EF92FF920F931F93CF93DF93DA01AE0D4F
:1021C000BF1DEC01EC81FD81EA17FB0710F490E0E4
:1021D00026C0B22E6A014B0189819A81288131E0A3
:1021E0003093130320933503109214031092360397
:1021F000E114F10409F589819A81DC01ED91FC91EA
:102200000280F381E02DA601B4010995C816D90614
:10221000F1F68B2D0E94D90491E08111D8CF892F3E
:10222000DF91CF911F910F91FF90EF90DF90CF90B2
:10223000BF909F908F90089501151105E1F2DC0188
:10224000ED91FC910280F381E02DA701B801099581
:102250008E159F0509F0BBCFCECFCF93DF93EC0156
:102260008B818823A1F0888191E090931303809360
:102270003503109214031092360381E00E94D904B2
:1022800091E0811190E0892FDF91CF9108950E9414
:10229000C40881E08B83CE010E942D11982F8111FB
:1022A000E2CFF1CFCF92DF92EF92FF920F931F9385
:1022B000CF93DF9300D0CDB7DEB7FC01211101C071
:1022C0002085253008F06AC04787508B618B728B60
:1022D00090E080E0C22ED12C8C159D05B4F42285AF
:1022E00021110BC0DF01A80FB91F1B964C93452F7E
:1022F000562F672F77270196EFCFD601A81BB90B72
:10230000AE0FBF1F1A964C93F2CFBF01655F7F4F90
:102310009681478199834A83A081B1811097A9F062
:10232000E184F12C8E010F5F1F4F21E0A601CD014A
:102330000E94D3100F900F90DF91CF911F910F91BA
:10234000FF90EF90DF90CF900895A281B381109716
:1023500029F124813581018510E02330310569F4AC
:102360004E7F49839A830F5F1F4F9E012F5F3F4F20
:10237000A601CD010E949810DDCF2115310519F479
:102380009F779983F2CF2230310511F49068F9CF0D
:102390002130310551F79F779064F3CF80E0CACFA9
:1023A000FC0170E08481893030F0660F771F442390
:1023B00011F06F5F7F4F82819381892B41F085817E
:1023C00090E0982F8827990F9064682B792BCB0188
:1023D0000895EF92FF921F93CF93DF93CDB7DEB7AF
:1023E00063970FB6F894DEBF0FBECDBF7C01162FEA
:1023F00069E00E94D011F70142815381208131812F
:10240000188A198A1A8A1B8A5C834B833A83298328
:1024100023E030E03E832D8321E02A8798878F8355
:102420001B862987412F50E070E060E020E0CE015C
:1024300001960E94521163960FB6F894DEBF0FBE4C
:10244000CDBFDF91CF911F91FF90EF900895CF9274
:10245000DF92EF92FF920F931F93CF93DF93FC01D4
:10246000808591858B01081B190BA08DB18DA00F64
:10247000B11F4C93C08CD18C7F0184E1E80EF11C1C
:10248000C489D589EC16FD0649F4DF91CF911F91DF
:102490000F91FF90EF90DF90CF900895E885F98538
:1024A000309721F0A801B601CE0109950990D88195
:1024B000C02DE8CFAF92BF92CF92DF92EF92FF9202
:1024C0000F931F93CF93DF93EC01888599857B0150
:1024D000E81AF90AA88CB98C6E0184E1C80ED11CE7
:1024E0000C891D89C016D10689F4688D798DE60E98
:1024F000F71ED7018C91DF91CF911F910F91FF9023
:10250000EF90DF90CF90BF90AF900895D8011696CE
:10251000ED91FC91309721F0A701B501C801099513
:10252000F80100811181DECF61E08DE00E94180981
:1025300061E08DE00E949608ECECF1E081E0848798
:102540008FE194E19783868385E794E19187808783
:10255000F0935D02E0935C02CF0108954F925F9289
:102560006F927F928F929F92AF92BF92CF92DF92A3
:10257000EF92FF920F931F93CF93DF9300D000D081
:1025800000D0CDB7DEB7FC01E85AFF4FC080D18044
:10259000C11422E0D20608F015C132962081203203
:1025A00008F010C18C01055A1F4FD8011C92E09110
:1025B000C802F091C902FE83ED83309709F419C176
:1025C000818180FF18C145E0CC0CDD1C4A95E1F704
:1025D000C22AF12CE12C828D938DA48DB58D59E00A
:1025E000CC0CDD1CEE1CFF1C5A95D1F78C159D05FB
:1025F000AE05BF0510F46C017D01AD81BE8156961C
:102600004D905D906D907C905997FD01168A178AC8
:10261000108E118EC114D104E104F10409F4D2C06A
:102620008280912CB12CA12C39E0880C991CAA1C19
:10263000BB1C3A95D1F7411451046104710409F4AB
:102640005CC0F1E04F1A510861087108C701B6017A
:102650006150710981099109A50194010E94023517
:1026600029833A834B835C83C301B201A5019401A2
:102670000E94023589819A81AB81BC8182179307C0
:10268000A407B507D0F188279927DC018819990993
:10269000AA09BB0984219521A621B721ED81FE81DC
:1026A000868B978BA08FB18FC81AD90AEA0AFB0ACA
:1026B00062A173A184A195A18C149D04AE04BF04F2
:1026C00008F045C00E94BD0C62307105810591057E
:1026D00068F0AD81BE8116964D905D906D907C90B6
:1026E00019976415750586059705A8F0ED81FE819B
:1026F000118281E0F801808365C0AD81BE815E9664
:102700006D917D918D919C919197FD0162A373A331
:1027100084A395A3D1CFAD81BE8192966D937D9315
:102720008D939C93959756964D905D906D907C906F
:102730005997480C591C6A1C7B1CFD01468A578A14
:10274000608E718EC818D908EA08FB08B5CFAD8134
:10275000BE8156968D909D90AD90BC905997C80CB7
:10276000D91CEA1CFB1CFD01C68AD78AE08EF18EBB
:102770000E94B709AB01BC01411551056105710506
:1027800029F4AD81BE8111961C92B3CFED81FE81FB
:1027900082818150990B092E000CAA0BBB0B29E0FA
:1027A000F694E794D794C7942A95D1F78C219D216C
:1027B000AE21BF21480F591F6A1F7B1F46A357A395
:1027C00060A771A726960FB6F894DEBF0FBECDBFE7
:1027D000DF91CF911F910F91FF90EF90DF90CF90FD
:1027E000BF90AF909F908F907F906F905F904F9031
:1027F000089585E07FCF84E07DCF0F931F93CF9323
:10280000DF93EC018DE00E946D08888362E08DE02B
:102810000E9418098DE00E946D088C0161E08DE036
:102820000E94180968818DE00E94960881E0012BC2
:1028300009F080E0DF91CF911F910F910895CF9320
:10284000DF93FC01C285D3852F8D203841F40C968F
:102850000E94FD138E8F8FEF8F8F81E088A3DF9111
:10286000CF9108950F931F93CF93DF938C0106555B
:102870001109F801278D233889F4EC0187E393E0EF
:102880000E94930721E0892B09F420E08A8520FB30
:1028900082F98A87F801868F8FEF878FDF91CF913A
:1028A0001F910F91089561E080E00C9496080F93BA
:1028B0001F93CF93DF938C01D0E0C0E061E08FE005
:1028C0000E949608000060E08FE00E9496080000D9
:1028D00021960C171D0791F7DF91CF911F910F9152
:1028E00008951ABA8FEF8BBB08950F931F93CF9360
:1028F000DF93FC0102851385F801278D211112C099
:10290000EC01868D61E080FF12C08DE00E94180905
:1029100060E08DE00E9496081C868FEFF801878F9B
:1029200081E080A3DF91CF911F910F9108958DE0F9
:102930000E94180961E08DE00E94960881E08C8772
:10294000ECCF1F93CF93DF93FC01C285D3851F8DFE
:10295000113041F46E8D87E393E00E94CA078FEF38
:102960008F8F18A3DF91CF911F910895CF92DF929F
:10297000EF92FF920F931F93CF93DF938C01FC0193
:10298000C285D3858F8D863859F0873809F44FC0BA
:10299000853809F03FC0E55AFF4F80818E8F38C0DF
:1029A00089A19AA19801255A3F4F6901892B39F4D1
:1029B000F9018081811103C0C8010E94AE12E9A013
:1029C000FAA0FFE1EF22FF24F6018081811115C0FA
:1029D000E114F10469F4C801C8960E942D0D97FF17
:1029E00022C08195F6018083F6018081811105C0A6
:1029F0000E0D1F1DF80180AD8E8F89A19AA18F3F0A
:102A0000F1E09F0710F02FEF2F8F01969AA389A373
:102A100081E088A3DF91CF911F910F91FF90EF90FC
:102A2000DF90CF9008958097FCF683E1DBCF109282
:102A3000C9021092C8020E94FB0D80FD05C0C801AA
:102A40000C960E94BA0BAACF82E0A8CF7F928F92F9
:102A50009F92AF92BF92CF92DF92EF92FF920F932D
:102A60001F93CF93DF93CDB7DEB7EC970FB6F894F3
:102A7000DEBF0FBECDBF5C01E090C802F090C9027E
:102A8000E114F10409F4F5C0F7011182CE01C196F9
:102A90009CA38BA39B016901F90190812F5F3F4F9C
:102AA0009032C9F39F3209F46901872E962E1DA238
:102AB0001EA21FA218A6F6018081A0E27A2E803203
:102AC00008F0C4C0CE0181960E94E20919820097E5
:102AD00009F4F7C091958195910928C120E0E0E0C3
:102AE00088E0D1C0C30ED11C81E0913208F080E0B3
:102AF0001B968C93CE0181960E94E209009751F7B4
:102B000029A13AA12F703327F5E0220F331FFA9540
:102B1000E1F74DA55EA56FA578A900E210E0CE0112
:102B200001960E94160B892B19F081E090E0D2CF1C
:102B30008981811103C083E090E0CCCF8C8583FD37
:102B400013C00BA11CA19E012F5F3F4FD801A8010C
:102B5000455F5F4F4A175B0709F4AEC0F901619109
:102B60009F019D916917B1F309A11AA10F5F1F4F32
:102B700011F38DA59EA5AFA5B8A90097A105B10534
:102B8000D1F298012F703327232BB9F40196A11DA0
:102B9000B11D8DA79EA7AFA7B8AB69A57AA58BA5D8
:102BA0009CA5F701611571058105910549F48481A2
:102BB00095810817190708F0BECF1AA309A3A0CF63
:102BC0002281E22FE150FF0BAF019801E4E036953E
:102BD0002795EA95E1F724233523232B71F70E94EB
:102BE000BD0C623071058105910508F49ECFF70197
:102BF00026813781408551856217730784079507C1
:102C000008F099CF69A77AA78BA79CA70E94B7095C
:102C10006DA77EA78FA798ABD0CF84FF8CCFF7018D
:102C200080818330F1F48D899E89B0E0A0E0DC01E1
:102C3000992788274B8D5C8D70E060E0842B952B65
:102C4000A62BB72B8DA39EA3AFA3B8A7ABA1BCA106
:102C5000FD01CD010B968E179F0709F43FCF7192AE
:102C6000FACF80E090E0DC01E5CF80E090E0DC018D
:102C70003DC085E090E02ECF883009F033CF9BE057
:102C8000282FE32F892F31E03E0FEC0DFD2DF11D94
:102C90009081913208F426CF9F3209F423CF9E32DF
:102CA00059F3281708F01ECFFD01E20FF11D9083A4
:102CB000982F81E0820FE4CFF8019385992309F4DE
:102CC000ACCF8981882309F436CF8C8584FD33CF3E
:102CD000E091C802F091C9028081833031F68D897C
:102CE0009E89B0E0A0E0DC01992788274B8D5C8DA0
:102CF00070E060E0842B952BA62BB72BF701868F15
:102D0000978FA0A3B1A38D8D9E8DAF8DB8A1828F1B
:102D1000938FA48FB58F168A178A108E118E81E03B
:102D20008183F50196AA87AA90E080E0EC960FB621
:102D3000F894DEBF0FBECDBFDF91CF911F910F91F1
:102D4000FF90EF90DF90CF90BF90AF909F908F90CB
:102D50007F900895CF93C82F85EF96E00E941108C9
:102D60008AEE96E0C13031F08FEE96E0C23011F479
:102D700085EE96E0CF910C9411080F931F93CF939B
:102D8000DF93EC0183E00E946D08811176C083E13E
:102D90000E946D08811112C082E10E946D088111AC
:102DA0001CC089B38E8F18A2CE014C960E945B0581
:102DB00088A1811109C08FEF8F8F06C084E10E9426
:102DC0006D08882309F445C060E08EE00E949608F3
:102DD00060E080E00E9496082CC089B38F8F1AA211
:102DE00019A2F2CF87E393E00E9493078E010A5A5B
:102DF0001F4F181619063CF587E393E00E947107F0
:102E00008E8FF8018285877F828761E081E00E9452
:102E100096088E8D9FEF9ABB8BBB60E08EE00E9480
:102E2000960860E080E00E949608000000000E9482
:102E300071140E94531461E08EE0DF91CF911F91D5
:102E40000F910C9496088FEF8E8FF8018285886021
:102E5000DBCF82E10E946D088111C4CF1E8E18A2C3
:102E6000BE016D5D7F4FCE014C960E947A0588A110
:102E70008111CFCF8FEF8F8FCCCFDF91CF911F916B
:102E80000F91089560E086E10E94960886E090E048
:102E90000E94571461E086E10E94960882E090E06B
:102EA0000C9457140E9442170E94531460E086E16C
:102EB0000E94960885B5806185BD85B58F7D85BDED
:102EC00061E070E080E090E00E94850987E393E094
:102ED0000E949307892B29F087E393E00E947107F2
:102EE000F5CF61E086E10E9496088DEB96E1909324
:102EF0005F0280935E0208951F93CF93DF93182F94
:102F0000D92F81E090E00E94571460E082E00E9497
:102F10009608CFEFCABB81E28BBB82E090E00E94B3
:102F200057140E94711482E090E00E945714CABBAB
:102F30001BBB83E090E00E945714CABBDBBB82E05E
:102F400090E00E9457140E94711461E082E0DF91CA
:102F5000CF911F910C949608CF93DF93D82F81E0E7
:102F600090E00E94571460E082E00E949608CFEF44
:102F7000CABB86E38BBB82E090E00E9457140E949C
:102F8000711482E090E00E945714CABBDBBB82E060
:102F900090E00E9457140E94711461E082E00E9448
:102FA000960883E090E00E94571481E090E00E9430
:102FB000571460E082E00E949608CABB83E28BBB94
:102FC00082E090E00E9457140E94711461E082E058
:102FD0000E94960883E090E0DF91CF910C94571403
:102FE000CF93DF93D82FC92F83EC0E94AC178D2F7E
:102FF0000E94AC178C2F0E94AC178D2F9C2FDF9155
:10300000CF910C947C17FC0101900020E9F73197D7
:10301000AF01481B590BBC0187E393E00C943507C3
:1030200087EC90E00C940318CF93DF930E94110873
:10303000EC010E9410188C0F9D1FDF91CF91089515
:10304000CF93DF93EC0186EC97E00E941108888112
:10305000882331F083EB97E0DF91CF910C94141823
:103060008CEB97E0F9CFCF93DF93FC01448155813E
:103070006081718187E393E00E943507EC010E9433
:1030800010188C0F9D1FDF91CF910895E7E3F3E0B7
:10309000A089B18982E08C93A485B5851C92A68510
:1030A000B78580E18C93108EA489B58986E88C93CE
:1030B000A289B3898C9188698C930288F389E02D69
:1030C00080818F7D808362E08AE00E94180961E040
:1030D00087E10E94180960E087E10E94960864E693
:1030E00070E080E090E00E94850961E087E10E9445
:1030F000960864EF71E080E090E00E9485090E94EC
:10310000101881EA94E19093C7018093C6018EEB79
:1031100091E008950E94101882E396E290935F0276
:1031200080935E020895CF93DF930E940318EC0111
:103130000E9410188C0F9D1FDF91CF910895CF939F
:10314000DF93DC01FB0101900020E9F73197E61BDA
:10315000F70BEE23E1F0E4131AC080E0482F50E0B3
:103160004E175F0770F4460F571FEA014881042E7F
:10317000000C550B405351094A30510540F48F5F04
:10318000EDCF6E0F7F1F81E0A617B70708F480E030
:10319000DF91CF9108952F923F924F925F926F925D
:1031A0007F928F929F92AF92BF92CF92DF92EF92D7
:1031B000FF920F931F93CF93DF937C013B016A0132
:1031C00010E000E05524539444244A9485EE382EB0
:1031D00095EC292E0C151D0508F078C0809112037E
:1031E0008111FCCFD70114968D919C91E601C01BF3
:1031F000D10B8C179D0708F4EC01F70190818C2FFF
:10320000C13208F080E25092120341E096012C1B7B
:103210003D0B0217130708F440E04093110340925E
:10322000100310920F032FEF280F20930E035092DC
:10323000ED022091ED02990F922B9093ED02909167
:10324000EC029130D1F51092EC029091ED0293B91D
:1032500006B603FCFACF26BE909112039130E1F33B
:1032600090910F03981710F480910F03EEEEF2E0A7
:10327000ACECB2E090E0981322C01092CB02909395
:10328000CA029C171D06B1F54301800E911E540120
:10329000C501881999098C179D07A8F4D7011196C3
:1032A0008D919C91DC01ED91FC910284F385E02DE0
:1032B0000995F50181935F01EBCF36BECDCF21910A
:1032C0002D939F5FD8CF0C0F1D1F84CF81E0DF911E
:1032D000CF911F910F91FF90EF90DF90CF90BF9013
:1032E000AF909F908F907F906F905F904F903F90A6
:1032F0002F90089580E0EBCFAF92BF92CF92DF92F4
:10330000EF92FF920F931F93CF93DF93EC0169012C
:103310005801F12CE12C10E000E020E00E94D310D5
:10332000882379F0A501B601CE01DF91CF911F91DD
:103330000F91FF90EF90DF90CF90BF90AF900C94E3
:10334000CB1880E0DF91CF911F910F91FF90EF900C
:10335000DF90CF90BF90AF900895EF92FF920F93C0
:103360001F93CF93DF9300D000D000D01F92CDB732
:10337000DEB77C01FB01198207E010E09E012F5FA0
:103380003F4F41E050E0B901808191810E947C195A
:10339000E981EF77FA811B815D814E814F778F81C3
:1033A000282F30E094E0359527959A95E1F7922FF4
:1033B000990F990F291B220F280FD7012C93842FC7
:1033C00090E024E0959587952A95E1F7982F990F3D
:1033D000990F891B880F840F11968C931197652F75
:1033E00070E034E0759567953A95E1F7862F880F80
:1033F000880F681B660F650F12966C931297412F0A
:1034000050E064E0559547956A95E1F7842F880F61
:10341000880F481B440F410F13964C9313972F2F7F
:1034200030E074E0359527957A95E1F7822F880F83
:10343000880F281B220F2F0F14962C9314978E2F72
:1034400090E0F4E095958795FA95E1F7982F990F1C
:10345000990F891B880F8E0F15968C93C70127969D
:103460000FB6F894DEBF0FBECDBFDF91CF911F9195
:103470000F91FF90EF900895EF92FF920F931F939B
:10348000CF93DF9300D0CDB7DEB77C01DC01189677
:103490000C9118979C01255F3F4F16969C911697AB
:1034A00017968C91179799838A83ED91FC911197C8
:1034B000309751F110E019964C9150E0BE016F5FCA
:1034C0007F4FCF010E947C19882321F1F7014085AD
:1034D00050E030E020E060E070E0CB0124173507D9
:1034E000E4F4982F872F762F6627D7011A96EC9150
:1034F000E11144C0FA01E21BF30BEE0DFF1DE28562
:103500006E2B2F5F3F4FEACF1296ED91FC911397F0
:10351000309761F46FEF7FEFCB010F900F90DF9149
:10352000CF911F910F91FF90EF90089514966D9198
:103530007C91159710E019964C9150E0633071051D
:1035400069F4A82FA160A9839A834F5F5F4FBE01E2
:103550006F5F7F4FCF010E945C10B6CF6115710580
:1035600019F490689983F3CF6230710511F49F7755
:10357000F9CF6130710559F7906CF4CFF701E20F84
:10358000F31FE385BDCF8F929F92AF92BF92CF92F0
:10359000DF92EF92FF920F931F93CF93DF93EC0193
:1035A0004A015B01888199810E943C1A2A8101E0CD
:1035B00010E002C0000F111F2A95E2F70150110917
:1035C000012E000C220B330BAB81680179010A2E0E
:1035D00004C0CC0CDD1CEE1CFF1C0A94D2F7C09476
:1035E000D094E094F094C622D722E822F922E88110
:1035F000F981B901A801482159216A217B2104C020
:10360000440F551F661F771FAA95D2F74C295D29D5
:103610006E297F292085CF01DF91CF911F910F91D6
:10362000FF90EF90DF90CF90BF90AF909F908F90E2
:103630000C9452116F927F928F929F92AF92BF9291
:10364000CF92DF92EF92FF920F931F93CF93DF936E
:10365000CDB7DEB7AE970FB6F894DEBF0FBECDBFC5
:103660007C01062F642E77247394683008F4712C43
:10367000472D60E0C7010E94D011F701828093803E
:10368000A080B180188A198A1A8A1B8A9C828B8230
:10369000BA82A98223E0C22ED12CDE82CD8211E033
:1036A0001A8798878F831B861987472D66E0C70185
:1036B0000E94D0111BA21CA21DA21EA29F8A8E8A4C
:1036C000BD8AAC8AD98EC88E1D8F9B8F8A8F1E8E25
:1036D0001C8F0770CE01019698A78FA319A70AA780
:1036E00043969CA78BA71DA70EA741E050E060E082
:1036F00070E0F1E06F1203C040E050E0BA01CE018B
:1037000087960E94C31A41E050E060E070E082E0DA
:10371000681619F040E050E0BA01CE018B960E9485
:10372000C31AAE960FB6F894DEBF0FBECDBFDF91C1
:10373000CF911F910F91FF90EF90DF90CF90BF90AE
:10374000AF909F908F907F906F900895CF92DF926F
:10375000EF92FF920F931F93CF93DF93FC01E284CC
:10376000F384D7015F969C915F978DEF890F863028
:10377000E0F484858823C9F08F015E966C91035F25
:103780001F4F963009F457C0C8F49430B9F1953002
:10379000B9F140E0C8010E94E9118FEFD7015F96AF
:1037A0008C935F9781E090968C93DF91CF911F91DE
:1037B0000F91FF90EF90DF90CF900895973009F42C
:1037C00056C0983031F7D12CC12CC62FD0E0AE01B5
:1037D0000C2C02C0559547950A94E2F7440F551FEB
:1037E000427068E06C0DC8010E941A1BEFEFCE1A00
:1037F000DE0AF8E0CF16D10451F7CFCF41E0CACFAF
:10380000D12CC12CC62FD0E0AE010C2C02C0559596
:1038100047950A94E2F740955095417055276C2DD5
:10382000C8010E941A1BBFEFCB1ADB0AE8E0CE16D4
:10383000D10451F7B2CFD12CC12CC62FD0E0AE01AC
:103840000C2C02C0559547950A94E2F74095509587
:103850004170552768E06C0DC8010E941A1BFFEFEC
:10386000CF1ADF0A88E0C816D10449F796CFD12CC9
:10387000C12CC62FD0E0AE010C2C02C05595479547
:103880000A94E2F7440F551F42706C2DC8010E9444
:103890001A1BAFEFCA1ADA0AB8E0CB16D10459F7EF
:1038A0007CCF0F931F93CF93DF93CDB7DEB7639792
:1038B0000FB6F894DEBF0FBECDBF8C01462F69E076
:1038C0000E94D011F8014281538120813181188AF0
:1038D000198A1A8A1B8A5C834B833A83298323E0E3
:1038E00030E03E832D8321E02A8798878F831B86D3
:1038F0002987CE0101960E943C1A862F63960FB647
:10390000F894DEBF0FBECDBFDF91CF911F910F9115
:103910000895CF93DF93FC01C285D3852F8D3FE7B8
:10392000320F323078F43485332361F00D9660E045
:10393000223809F461E00E94511C8E8F8FEF8F8F27
:1039400081E088A3DF91CF9108958F929F92AF92EB
:10395000BF92CF92DF92EF92FF920F931F93CF937C
:10396000DF9300D000D000D0CDB7DEB7DC011A96CF
:10397000CD90DC901B97F601278D243831F41C96EE
:103980002C91211115C08FEF878F26960FB6F894D2
:10399000DEBF0FBECDBFDF91CF911F910F91FF9082
:1039A000EF90DF90CF90BF90AF909F908F90089551
:1039B000D60101A0F2A1E02D9F012F5F3F4F92960B
:1039C0003C932E939197E730F10508F57C01E55182
:1039D000F34E0C943136F21C0B1D0E1D111D141DDF
:1039E000171D1A1DBC01635F7F4FCE0101960E9417
:1039F000AD1986E0FE013196D7011F9601900D9218
:103A00008A95E1F7F7018489D6015E968C9381E06F
:103A1000F60180A3BACFFC018389F6CFFC0182892D
:103A2000F3CFFC018189F0CFFC018089EDCFFC014F
:103A30008785EACF81E189831A8202E010E09E0146
:103A40002F5F3F4F41E050E0B901F7018585968532
:103A50000E947C196A8170E086E0759567958A9569
:103A6000E1F7072E000C880B990B0E94E43320E04D
:103A700030E040E85EE30E941F344B015C01698145
:103A800070E090E080E00E94E2339B01AC01C50150
:103A9000B4010E9476350E94E235D6015E966C93A1
:103AA000B6CFCF92DF92EF92FF920F931F93CF93F7
:103AB000DF9300D0CDB7DEB76C018FE08A83F12CA5
:103AC000E12C10E000E021E041E050E0BE016E5F3B
:103AD0007F4FF601808191810E94D31041E050E038
:103AE000BE016F5F7F4FF601808191810E94CB18EC
:103AF00089810F900F90DF91CF911F910F91FF90CF
:103B0000EF90DF90CF900895CF92DF92EF92FF92E7
:103B10000F931F93CF93DF93CDB7DEB72A970FB6DE
:103B2000F894DEBF0FBECDBF6C01FB011A82198273
:103B300035812AE0832F622F0E941136982F880F3B
:103B4000890F880F830F8A833481832F0E94113657
:103B5000982F880F890F880F830F8B833381832FD2
:103B60000E941136982F880F890F880F830F8C833E
:103B7000428131812081622F70E0A42FB0E0E9E022
:103B8000F9E081E0831730F49491A90FB11D8F5FA4
:103B90003196F8CF333020F0822F837009F41196DC
:103BA000EDE6F1E06E9FC0016F9F900D7E9F900D3E
:103BB000112405966D5F7F4F76956795769567958D
:103BC000860F971F8A0F9B1F67E070E00E941D36CB
:103BD000811101C087E08D835AE0842F652F0E94F8
:103BE0001136982F880F890F880F840F8E83832FAB
:103BF0000E941136982F880F890F880F830F8F83AB
:103C0000822F0E941136982F880F890F880F820FFC
:103C10008887F12CE12C10E000E021E048E050E042
:103C2000BE016F5F7F4FF601808191810E94D310AA
:103C3000C6010E94511D9FE099878F778A8721E0F6
:103C400042E050E0BE01675F7F4FF60180819181C5
:103C50000E94D3102A960FB6F894DEBF0FBECDBFD8
:103C6000DF91CF911F910F91FF90EF90DF90CF9058
:103C700008952F923F924F925F926F927F928F9210
:103C80009F92AF92BF92CF92DF92EF92FF920F93EB
:103C90001F93CF93DF93DC011A960D911C911B9714
:103CA000E8012F8D2A3009F4E2C01C012B30B0F45A
:103CB000293009F49AC0DF91CF911F910F91FF90A5
:103CC000EF90DF90CF90BF90AF909F908F907F90BC
:103CD0006F905F904F903F902F9008952B3009F494
:103CE000EEC02C3041F789A19AA1FD01E55AFF4FA2
:103CF0006F01892B31F48081811103C0CD010E94B5
:103D0000AE12D6018C9181118BC1E80189A19AA1D3
:103D10008F7199272E8DF101E80FF91F20AF4F9772
:103D200009F07EC11C92C091C802D091C9022097AF
:103D300009F462C1898180FF62C186FD0AC08E8953
:103D40009F89A88DB98D88279E7F8E8B9F8BA88F8A
:103D5000B98F8A8D9B8DAC8DBD8D4E895F89688DA5
:103D6000798D841B950BA60BB70B80329105A105AD
:103D7000B10520F080E290E0A0E0B0E0E8E32E0E94
:103D8000311C7C01912C812CE114F10409F413C144
:103D90004E895F89688D798DCA019170892B09F0F0
:103DA000D2C0BA80BA94DB01CA0129E0B695A795C2
:103DB000979587952A95D1F7B82209F0A4C0452B8D
:103DC000462B472B09F094C06E8D7F8D88A199A159
:103DD000623071058105910508F091C0198281E07A
:103DE00090E0919581959109E9C08E8DED01C55ABC
:103DF000DF4F843688F080E18883D8015F968C910C
:103E00005F978A3029F08C3019F08FEF5F968C9392
:103E100081E0E80188A34FCFFD01E25AFF4FD801AE
:103E2000AC5ABF4F8C91805D80833296D8015E96EC
:103E30008C915E973AE0632F0E941136805D8083FB
:103E40005E962C913196822F0E941136205DB6EF3E
:103E50008B9F200D112420831882B101645A7F4F5B
:103E6000C1010E94261597FFC8CF8195C5CF29A112
:103E70003AA1A85ABF4F232B79F48E8D90E08D93F1
:103E80009C93D80191968D919C91929701969296D0
:103E90009C938E939197B1CFFC01E55AFF4F10820E
:103EA0008E8D9C918927982789278D939C93809745
:103EB00010F082E180838FEFF801878FE2CFFC0161
:103EC000E55AFF4F10829E8DA65ABF4F9C93D8E5AE
:103ED0002D0E311CD1012D913C912115324010F055
:103EE00081E18083903208F488CF82E1808385CF9E
:103EF0006AA17BA18CA19DA10E94BD0C69CF6AA380
:103F00007BA38CA39DA36AA17BA18CA19DA10E94F0
:103F1000B709611571058105910509F45FCFAB0102
:103F2000BC014B0D511D611D711D4EA35FA368A700
:103F300079A790E080E00E94C00A892B09F04ECF5B
:103F40008981806489838E899F89917020E032E025
:103F5000281B390B57012E153F0508F4590125017F
:103F6000712C612CB301A501C1010E94C00A892BEB
:103F700009F034CF8E899F89A88DB98D840D951D48
:103F8000A61DB71D8E8B9F8BA88FB98F2A0C3B1C4B
:103F9000EA18FB088A0C9B1C2C0131E053224528AF
:103FA00009F0F2CE0E94320A892B09F017CF8981DD
:103FB0008F7B8983E9CEC40197FE24C08195D60109
:103FC0008C93D80191968D919C918F3F914040F1B7
:103FD000F6018081811121C0209749F1898180FFFC
:103FE00028C086FF17C00E94320A892B99F01982D7
:103FF00081E0D6018C9311C085E090E0F2CE84E0A0
:1040000090E0EFCEB0E28B169104DCF683E1F6018E
:104010008083D7CF89818F7B89838FEFE8018F8F52
:10402000F80181A192A1019692A381A3E6CE85E039
:10403000E0CF84E0DECFCF93DF93CDB7DEB7C054BF
:10404000D1090FB6F894DEBF0FBECDBF8BE599E066
:104050000E9414186091E3037091E40340E450E07F
:10406000CE0101960E94E330CE0101960E94031812
:1040700089E599E00E941108C05CDF4F0FB6F89403
:10408000DEBF0FBECDBFDF91CF9108950F931F9379
:10409000CF93DF93CDB7DEB7C054D1090FB6F894F4
:1040A000DEBF0FBECDBF89EC90E00E94931889EC73
:1040B00090E00E9493188091E20310E005E08111E6
:1040C00014C087E499E00E94141884E199E00E94EA
:1040D0001418C05CDF4F0FB6F894DEBF0FBECDBF23
:1040E000DF91CF911F910F9108958091E2031817EE
:1040F00080F7E091E003F091E103109FE00DF11DE6
:1041000011246081718140E450E0CE0101960E944B
:10411000E330CE0101960E9493181F5FE6CF0E9404
:1041200046200C941B20DC0114968D919C911597D0
:104130006817790750F4ED91FC911197E60FF71F7E
:1041400015967C936E931497108208950F931F9386
:10415000CF93DF93EC0188819981009759F02A81F0
:104160003B812617370730F081E0DF91CF911F9117
:104170000F9108958B016F5F7F4F0E945C3700970E
:1041800059F0998388831B830A832C813D81232BDB
:1041900059F7FC011082E8CF80E0E7CFCF93DF939F
:1041A000EC01198218821B821A821D821C8270E027
:1041B00060E00E94A6202881398181110FC021155D
:1041C000310519F0C9010E94D336198218821D8267
:1041D0001C821B821A82DF91CF9108951D821C825E
:1041E00069EC70E0C901DF91CF910C943638CF9320
:1041F000DF93EC0170E060E00E94A6202881398105
:1042000081110FC02115310519F0C9010E94D33663
:10421000198218821D821C821B821A82DF91CF9123
:1042200008951D821C8269EC70E0C901DF91CF9175
:104230000C943638EF92FF920F931F93CF93DF9336
:1042400000D0CDB7DEB78C0169831A82FC01E4800F
:10425000F580FFEFEF1AFF0AB7010E94A62088231E
:1042600081F0F8012081318184819581BE016F5FE9
:104270007F4F820F931F0E943638F801F582E48247
:1042800081E00F900F90DF91CF911F910F91FF90E0
:10429000EF9008950F931F93CF93DF93CDB7DEB7C1
:1042A000C058D1090FB6F894DEBF0FBECDBF9E0136
:1042B00029573F4FF901419151919F0160E870E00A
:1042C000CE0101960E9435318E010F5F1F4FF8011C
:1042D00081918F01882379F0082E000C990B0E94A0
:1042E0002C08F801319780818A3089F78DE090E0C1
:1042F0000E942C08ECCFC058DF4F0FB6F894DEBFF9
:104300000FBECDBFDF91CF911F910F9108958823EC
:1043100009F160EA7FE080E090E01F921F921F9217
:104320001F9228EE33E040E050E00E9402355F9398
:104330004F933F932F9386ED97E09F938F930E9427
:104340004A218DB79EB70A960FB6F8949EBF0FBE4E
:104350008DBF089560E47FE180E090E0DECFCF93F1
:10436000DF93EC0104962C8D27FF25C09E01235E70
:104370003F4F3F932F939F938F9380E897E09F93B6
:104380008F930E944A210F900F900F900F900F90E3
:104390000F9088A987FF1CC00E9410188EE497E038
:1043A0000E94110889A9882321F18BE397E0DF910E
:1043B000CF910C9414189F938F9383E797E09F936A
:1043C0008F930E944A210F900F900F900F90E1CF92
:1043D000282F082E000C330B3F938F9381E697E034
:1043E0009F938F930E944A210F900F900F900F90F0
:1043F000D5CF84E497E0DBCFCF93DF93EC018881C6
:10440000811105C082E997E00E941418FFCFCE0108
:104410000E94AF21CE0102960E9420188B81DF916D
:10442000CF910C94872184960E94FC210E94101841
:1044300082E396E290935F0280935E020895CF93A9
:10444000DF93D82FC92F9F938F9383ED96E09F938F
:104450008F930E944A210F900F900F900F90ED2F95
:10446000FC2F83E696E0E730F10568F4E65CFD4D4D
:104470000C943136412247224A224D2250225322A7
:1044800056228BEC96E0DF91CF910C9411088DEBC6
:1044900096E0F9CF8EEA96E0F6CF81EA96E0F3CF88
:1044A00081E996E0F0CF80E896E0EDCF8DE696E0EA
:1044B000EACF1F93CF93DF93162FEA011816190640
:1044C000BCF49195819591090E941F22812F0E9431
:1044D000AA16209799F0DF93CF938AEF96E09F93E7
:1044E0008F930E944A210F900F900F900F90FFCF53
:1044F000009751F7DF91CF911F9108950E941018F6
:10450000F6CFFC0185811F928F9384811F928F9338
:1045100083811F928F93808190E08053984F9F9367
:104520008F9381811F928F9382811F928F9380EA54
:1045300095E09F938F930E944A218DB79EB70E9668
:104540000FB6F8949EBF0FBE8DBF08950F931F93B3
:10455000CF93DF9300D000D000D0CDB7DEB78C0171
:10456000BC01635F7F4FCE0101960E94AD1986E0CA
:10457000FE013196D8011F9601900D928A95E1F7C0
:104580008EEB95E00E941108C8010F960E948122CF
:104590000E94101826960FB6F894DEBF0FBECDBF4E
:1045A000DF91CF911F910F910895FF920F931F9369
:1045B000CF93DF93EC01F62E08811981C8010E9488
:1045C000DD34F81621F06F2DC8010E94E534CE01CC
:1045D000DF91CF911F910F91FF900895CF93DF93BB
:1045E0008091BC019091BD01009709F04EC01092DE
:1045F000C9021092C8020E94FB0DC2E0D0E080FD0B
:1046000005C08FE591E00E94BA0BEC01CE010E943B
:104610001F2280E00E94AA160E941018CD2BD1F014
:1046200087E393E00E949307181619062CF487E39A
:1046300093E00E947107F4CF88E097E00E9414187D
:104640000E94101887E393E00E949307181619063A
:10465000CCF7CDCF83E18093AE0160E377E08FEAC2
:1046600091E00E94DC3086EB94E190935A018093B4
:10467000590189E39EE190935C0180935B0183E59E
:1046800091E09093BD018093BC01DF91CF9108959B
:104690008F929F92AF92BF92CF92DF92EF92FF9252
:1046A0000F931F93CF93DF93CDB7DEB7CF54D109CC
:1046B0000FB6F894DEBF0FBECDBF8C018DE0ECECE1
:1046C000F0E0DE01AF5BBF4F01900D928A95E1F7FC
:1046D000F80181816AE00E941136805D28968FAFD3
:1046E0002897905D29969FAF29970E94EE227C0122
:1046F000BE016F5B7F4F0E94261597FF06C0AE017B
:104700004F5B5F4F61E00E945922B12CA12CF8E36E
:10471000EF0EF11CCE0101964C01C7010E942D0D38
:104720006C0197FD0DC0AC01B701C4018A0D9B1D42
:104730000E942238AC0CBD1C90E2C916D10469F36A
:1047400060969FAE8EAE60976AEC70E0CE01825BA1
:104750009F4F0E940031F0E0E0E068012DE1C20EC1
:10476000D11C580124E0A20EB11C009709F451C0DD
:104770007F012FEFE21AF20AE730F105C0F4ED53A2
:10478000FC4D0C943136CA23CF23E023E323ED23E1
:10479000F7230024BC01C5010E94363808C04AE056
:1047A00050E070E060E00E94772FF801648F6AECBF
:1047B00070E0CE01825B9F4F0E940031F701D5CFA0
:1047C000BC01C601E9CF40E150E070E060E00E942A
:1047D000772FF80173A762A7EACF40E150E070E0BD
:1047E00060E00E94772FF80175A764A7E0CF4AE048
:1047F00050E070E060E00E94772FF80160ABD7CF07
:104800004AE050E070E060E00E94772FF80161AB71
:10481000CECFC15BDF4F0FB6F894DEBF0FBECDBF6A
:10482000DF91CF911F910F91FF90EF90DF90CF908C
:10483000BF90AF909F908F9008950F931F93CF9349
:10484000DF93CDB7DEB72D970FB6F894DEBF0FBE5E
:10485000CDBF8091CA019091CB01009709F026C18C
:10486000109269021092680210926B0210926A0212
:104870008AE592E190936D0280936C0287E292E167
:1048800090936F0280936E0282E090E090937102A9
:104890008093700284E792E0909375028093740293
:1048A000909377028093760283E892E09093790266
:1048B0008093780210927E028FEF80937F02109295
:1048C0008202109281020E9430070E94A20510E02D
:1048D0000AE08DE0ECECF0E0DE01119601900D9223
:1048E0008A95E1F7812F602F0E941136805D8F83BA
:1048F000905D98870E94EE22BE016F5F7F4F0E94FD
:10490000261597FF3AC0109384028AE090E00E9437
:10491000DD348117A0F5809385028CE090E00E9441
:10492000DD34823088F0109286028091C0028E7F42
:104930008093C0028CE090E09A83898360E0CE018E
:1049400001960E94D52280E0809386028DE090E05F
:104950000E94DD348230A8F011E0109387028DE0D0
:1049600090E09A83898361E0CE0101960E94D5226E
:1049700013BD1093870282E009C01F5FAACF80E0B9
:10498000CACF809387028111F6CF81E0815083BD29
:1049900084E892E00E94482300E612E08091C00281
:1049A0009091860290FB80F98093C00282E394E1AB
:1049B0009093BD028093BC021093BB020093BA0295
:1049C000E0917402F091750286EB92E0938382830A
:1049D000F093B702E093B60224E732E03093B902D5
:1049E0002093B802909375028093740261E08EE088
:1049F0000E94180961E08EE00E94960862E082E160
:104A00000E94180961E082E00E94180961E082E0DA
:104A10000E9496080E94711482B5877F82BD85B579
:104A2000816085BD85B5897F85BD85B5886085BD7B
:104A300085B58F7B85BD85B58F7E85BD85B58F7D21
:104A400085BD61E08FE00E94180961E08FE00E945F
:104A5000960860E083E00E94180961E080E00E940F
:104A6000180960E080E00E94960861E081E00E9401
:104A7000180961E081E00E94960861E086E10E94E9
:104A8000180960E086E10E94960862E085E10E94D4
:104A9000180962E084E10E94180962E083E10E9443
:104AA00018091093CB010093CA01C8012D960FB6C7
:104AB000F894DEBF0FBECDBFDF91CF911F910F9154
:104AC0000895CF93DF930E941D24EC0187E393E0C8
:104AD0000E949307892B59F0CB5ADF4F8881882396
:104AE00031F060E081E0DF91CF910C949608DF9186
:104AF000CF9108950E949F0781110C94612508951C
:104B0000AF92BF92CF92DF92EF92FF920F931F93DB
:104B1000CF93DF93CDB7DEB7E2970FB6F894DEBF41
:104B20000FBECDBF0E941D245C010E94101810E032
:104B300000E06E0185E0C80ED11C8FE6E82E84E00F
:104B4000F82EF50184A180171106B9F0B0F00A83A0
:104B5000CE0101960E944823DF92CF921F930F93BC
:104B6000FF92EF920E944A210F5F1F4F0F900F900C
:104B70000F900F900F900F90E4CF0E941B20E296B1
:104B80000FB6F894DEBF0FBECDBFDF91CF911F915E
:104B90000F91FF90EF90DF90CF90BF90AF9008956E
:104BA000FF920F931F93CF93DF9300D0CDB7DEB763
:104BB0000E941D248C010E941018F801F7A061E0EA
:104BC000F11060E06F1581F0F80167A38DE090E0CF
:104BD0009A838983CE0101960E94D52281E0F1104B
:104BE00001C082E0815083BDF80187A10E94872126
:104BF0000E941B200F900F90DF91CF911F910F917A
:104C0000FF9008950F931F93CF93DF9300D0CDB7FC
:104C1000DEB70E941D248C010E941018F80186A1A5
:104C200061E0811160E0681781F0F80166A3E05A45
:104C3000FF4F808160FB80F980838CE090E09A8355
:104C40008983CE0101960E94D522C80186960E94D2
:104C500020180E941B200F900F90DF91CF911F9181
:104C60000F9108954F925F926F927F928F929F92D1
:104C7000AF92BF92CF92DF92EF92FF920F931F936A
:104C8000CF93DF932C010E9442170E9453143201EC
:104C900081E4680E711C8201025B1F4FF801818163
:104CA0008F9380818F937F926F9284E895E09F939A
:104CB0008F930E944A210E94EE22EC01B3010E94D0
:104CC00026157C010F900F900F900F900F900F9072
:104CD00097FF04C0A30161E00E945922F8010081FE
:104CE000118190E080E00E947C170115110519F0F8
:104CF000C8010E94F0176E01F8E3CF0ED11CC60167
:104D00000E942D0D4C0197FD0EC08E015C01AC0E72
:104D1000BD1EA016B106A9F1F80180AD0E94AC1726
:104D20000F5F1F4FF6CFA30162E0C7010E94592217
:104D3000F201E05BFF4FC081D18190E080E00E94F2
:104D40007C17209719F0CE010E94F01785E795E0B7
:104D50000E94141882E597E190935F0280935E02AF
:104D6000DF91CF911F910F91FF90EF90DF90CF9047
:104D7000BF90AF909F908F907F906F905F904F907B
:104D80000895F0E28F16910409F4B9CFD1CFEF92D4
:104D9000FF920F931F93CF93DF93CDB7DEB7AF97FB
:104DA0000FB6F894DEBF0FBECDBF80914B018111CD
:104DB0000FC010923E0110923D018FE391E00E94DE
:104DC000350585E491E00E94350581E080934B0133
:104DD0008091280181114EC085E1E9EDF0E0DE010E
:104DE0005B9601900D928A95E1F78AE1E9E8F0E09F
:104DF000DE01119601900D928A95E1F71E8E19A29F
:104E00001EA219A61CA6CE0182960E948E309093F7
:104E1000220180932101CE014F960E948E30809313
:104E20002401CE0187960E948E3080932501CE0109
:104E30008A960E948E3080932601CE018D960E9424
:104E40008E30809327017E0173E0E70EF11C11E0A4
:104E5000F701619171917F0143E050E0CE014B96E3
:104E60000E943D38892B09F075C01093230181E021
:104E7000809328012091270130912601409125013E
:104E80005091240160912301809121019091220190
:104E9000803DF7E09F0710F0805D974080934501CB
:104EA0006093460150934701409348013093490174
:104EB00020934A0186E496E00E94110885E491E07F
:104EC0000E9481220E94101880913D0190913E0124
:104ED000009711F00E94D33686E090E00E943736AA
:104EE0008C0188E6F801808384ED93E092838183CE
:104EF000138280E290E09583848310933E010093B7
:104F00003D010E94C408FF24F394F801F382C80114
:104F10000E942D11811123C010923C0186E0E5E42E
:104F2000F1E0AFE3B1E001900D928A95E1F78FE1F6
:104F300096E00E94141880E391E0AF960FB6F894C3
:104F4000DEBF0FBECDBFDF91CF911F910F91FF90BC
:104F5000EF9008951F5F1D3009F07ACF88CFF0924F
:104F60003C018DE391E00E94511D90E0880F892F54
:104F7000881F990B892B51F08BED95E00E94141836
:104F800065E471E08DE391E00E94841D80E391E08F
:104F90000E94A62285EA9CE1909337018093360116
:104FA000CACF0F931F93CF9387E393E00E94930799
:104FB00018161906B4F487E393E00E947107C82F0E
:104FC000082F880F110BC8010E941938892B89F00E
:104FD000C8010E942C0880912001811106C0C09355
:104FE0002001CF911F910F91089580E180932001BE
:104FF000F8CFCA3091F034F4C83009F471C010927F
:105000002001EFCFCD3049F083ED94E0CB31B9F7FB
:105010000E9414180E941B20F2CF80912001882347
:1050200051F1803111F13091E203E091E003F09110
:10503000E103C0E0082E000C990B3C1741F02281DF
:10504000CF5F359628171906C1F7C1110BC088E24A
:1050500095E00E94141887E295E00E9414180E94BF
:105060001B20C0E01092200109C087E495E00E9457
:105070001418109220010E941B20C0E062E070E032
:1050800080E090E00E94850987E393E00E94930707
:105090001816190664F487E393E00E9485078A30A6
:1050A00011F08D3021F487E393E00E947107CC2347
:1050B00009F497CF8091E2038C1708F492CFE09126
:1050C000E003F091E10385E0C89FE00DF11D11249C
:1050D00035970380F481E02DCF911F910F910994B2
:1050E00080912001882309F47CCF803129F088E069
:1050F00090E00E942C0883CF89EF94E00E94110871
:1051000086EE94E085CFCF93DF93EC0184EC94E0BE
:105110000E941418CE0184960E94FC21C0E6D0E0C3
:10512000888199810E94F7308134910548F088E7A1
:1051300094E00E94141882EB94E00E941418FFCFB0
:10514000259680E0C338D80759F780E690E0909321
:10515000E1038093E00387E08093E20383EC94E033
:105160009093E4038093E3030E9446200E941B2057
:1051700081ED97E290935F0280935E02DF91CF9181
:1051800008952F923F924F925F926F927F928F92EB
:105190009F92AF92BF92CF92DF92EF92FF920F93C6
:1051A0001F93CF93DF93CDB7DEB7A2970FB6F894D6
:1051B000DEBF0FBECDBFE0905A02F0905B02E1145B
:1051C000F10439F40E94C7267C0190935B0280931E
:1051D0005A02CE0145960E94CE20F70184858111A6
:1051E00007C00E94101885E594E00E94110853C082
:1051F0000E9410188AE394E00E94110889EC90E064
:105200000E949318CE0145960E9433180E941B20DD
:10521000CE0145960E94F72000E087E393E00E94CC
:10522000930718161906CCF787E393E00E947107DD
:10523000182FC82E880FDD08C6010E941B38892B45
:1052400061F0003450F7612FCE0145960E941A217B
:10525000C6010E942C080F5FE0CF1A3009F43FC04E
:1052600094F41830D1F60023C1F288E090E00E9457
:105270002C080150698D7A8D61507109CE014596D7
:105280000E949320CACF1D3051F11B3131F6CE015F
:1052900045960E94F7200E941018C7010E94A6227E
:1052A0000E941B208D899E890E94D336A2960FB63C
:1052B000F894DEBF0FBECDBFDF91CF911F910F914C
:1052C000FF90EF90DF90CF90BF90AF909F908F9026
:1052D0007F906F905F904F903F902F90089562E085
:1052E00070E080E090E00E94850987E393E00E94EF
:1052F0009307181619060CF45CC0C98CDA8CC1141B
:10530000D10449F288EE93E0F4E1CF16D10408F01D
:1053100049C06D897E89A6018E010F5F1F4FC801AC
:105320000E944B38F801EC0DFD1D10826DE270E01B
:10533000C8010E942B384C0101969C8F8B8F6DE227
:1053400070E00E942B385C01FC013196FE8FED8FDE
:1053500064E570E0CF010E942B386C01019698A3A0
:105360008F8F6AE370E00E942B383C012C019FEF85
:10537000491A590A6AE370E0C2010E942B381C01E5
:10538000F80101900020E9F73197CF01801B910BC4
:105390009AA389A38114910419F0A114B104B9F45A
:1053A00085EC93E00E9411080E94101885E294E0B9
:1053B0001CCF87E393E00E9485078A3019F08D3077
:1053C00009F09BCF87E393E00E94710796CF84E9B1
:1053D00093E0C114D10431F36114710419F0211464
:1053E000310419F481E793E0DDCFF401108244E049
:1053F000B801C4010E949F18811103C085E593E0A4
:10540000D1CFF501108242E06B8D7C8DC5010E94E9
:105410009F18811103C088E393E0C4CFF601108286
:1054200042E06D8D7E8DC6010E949F18811103C0E0
:105430008DE193E0B7CFF301108242E06F8D78A148
:10544000C3010E949F18811103C081E093E0AACF9D
:10545000F101108242E0B201C1010E949F18811146
:1054600003C083EE92E09ECFFFEF2F1A3F0A89A17F
:105470009AA1019642E0B201800F911F0E949F18ED
:10548000B82E85EC92E0BB2009F48CCFC8010E94B5
:105490008E306C018B8D9C8D0E948E30A82E8D8D50
:1054A0009E8D0E948E30982E8F8D98A10E948E30F6
:1054B000882EC2010E948E30782EC1010E948E304B
:1054C000282FC60183709927892B39F4C60164E619
:1054D00070E00E941D36892B51F4C60160E971E02D
:1054E0000E941D36BB24B394892B09F0B12CC60150
:1054F000825B97408E359F4118F08DE892E052CF45
:105500008FEF8A0D8C3018F089E592E04BCF8FEF4A
:10551000890D8F3118F087E292E044CF8A2D8D7F7C
:10552000843011F0893031F4FFE19F1214C087E01C
:1055300092E038CF82E0A8120EC0BB2031F09DE18E
:10554000991548F48CED91E02DCFECE18DEA91E0D6
:10555000E91508F427CFF7E18AE791E0F81508F498
:1055600021CF3BE3371518F485E491E01BCF80E1B0
:1055700091E02C3308F016CF80EDC81687E0D806EE
:1055800088F4C982AA829B828C827D822E83F70155
:105590008485882309F47FCEB801C7010D960E9447
:1055A000841D79CE90EDC91A97E0D90AEACF7F928F
:1055B0008F929F92AF92BF92CF92DF92EF92FF9223
:1055C0000F931F93CF93DF93CDB7DEB728970FB616
:1055D000F894DEBF0FBECDBF0E941D248C016C016C
:1055E00084E2C80ED11CCE0101960E94CE20F801A3
:1055F00074A0872D8150990B7C01FF928F9389EFC6
:1056000090E09F938F930E944A2189EC90E00E9442
:105610009318CE0101960E9433180E941B20CE01E0
:1056200001960E94F7200F900F900F900F90B12CD1
:1056300087E393E00E94930718161906CCF787E3D7
:1056400093E00E947107882E082E000C990894019F
:10565000205331092A30310580F18B3109F4A5C07E
:10566000C4F48A3009F459C08D3009F456C088302A
:10567000F9F6BB20E9F288E090E00E942C08BA9489
:105680006D817E8161507109CE0101960E94932047
:10569000CFCF8D32E1F08E3221F18B3249F6B1104D
:1056A000C7CF6BE2CE0101960E941A218BE290E0F7
:1056B0000E942C08BB24B394BBCF682FCE01019667
:1056C0000E941A21C4010E942C08B394B1CFB110DA
:1056D000AFCF6DE2CE0101960E941A218DE290E0DB
:1056E000E7CFBB2009F4A4CF8D819E81892B69F07F
:1056F00089809A806EE270E0C4010E942B38009786
:1057000021F08819990997FF93CF6EE2CE01019697
:105710000E941A218EE290E0D6CF62E070E080E035
:1057200090E00E94850987E393E00E949307181692
:1057300019060CF457C08D819E81892BD1F1898186
:105740009A81009709F45CC00E94AC304B015C0167
:10575000B7FE59C0FF92EF92BF92AF929F928F9285
:1057600085EC90E09F938F930E944A210FB6F894A6
:10577000DEBF0FBECDBF0E941B2089819A810E948F
:10578000D33628960FB6F894DEBF0FBECDBFDF919B
:10579000CF911F910F91FF90EF90DF90CF90BF902E
:1057A000AF909F908F907F900895CE0101960E94B8
:1057B000F720F80185A00E941018F80185A188152E
:1057C00069F085A28AE090E098878F83682DCE01EA
:1057D00007960E94D522C6010E944823C6010E9456
:1057E000AF21C9CF87E393E00E9485078A3019F083
:1057F0008D3009F0A0CF87E393E00E9471079BCF23
:10580000812C912C5401872D90E0B0E0A0E0881607
:105810009906AA06BB067CF29DCF1F920F920FB687
:105820000F9211242F933F934F935F936F937F9326
:105830008F939F93AF93BF93EF93FF9387E393E08F
:105840000E94A907FF91EF91BF91AF919F918F9116
:105850007F916F915F914F913F912F910F900FBE6C
:105860000F901F9018951F920F920FB60F92112450
:105870002F938F939F93EF93FF93E0914703F091C2
:1058800048038081E0914D03F0914E0382FD1BC0DF
:105890009081809150038F5F8F7320915103821705
:1058A00041F0E0915003F0E0E95CFC4F958F80936C
:1058B0005003FF91EF919F918F912F910F900FBE09
:1058C0000F901F9018958081F4CF1F920F920FB602
:1058D0000F9211242F933F938F939F93AF93BF9376
:1058E0008091200290912102A0912202B091230286
:1058F00030911F0223E0230F2D3768F126E8230F94
:105900000296A11DB11D20931F0280932002909347
:105910002102A0932202B09323028091240290914D
:105920002502A0912602B09127020196A11DB11D6A
:105930008093240290932502A0932602B09327021D
:10594000BF91AF919F918F913F912F910F900FBE7B
:105950000F901F9018950196A11DB11DD4CF1F92D5
:105960000F920FB60F9211242F933F934F935F9393
:105970006F937F938F939F93AF93BF93EF93FF9317
:1059800081B1887F803609F44AC0F0F5883209F485
:10599000A3C018F5803109F499C0B8F4882309F43C
:1059A000F1C0883009F492C0FF91EF91BF91AF919F
:1059B0009F918F917F916F915F914F913F912F9127
:1059C0000F900FBE0F901F901895883109F484C076
:1059D000803251F78093100314C0803409F498C0CA
:1059E00040F48033B9F38833F9F68093100385ECE3
:1059F000AAC0803509F481C0883509F491C0883483
:105A000099F60E94D40ED0CF883909F487C030F5BA
:105A1000883729F050F4883611F0803729F683E072
:105A20008093120310921B0254C0883809F476C088
:105A3000803919F0803809F0B7CF80911B0280328D
:105A400008F06CC0E0911B0281E08E0F80931B0276
:105A500083B1F0E0E550FE4F80833BC0803B39F0DE
:105A6000E0F4803A09F473C0883A09F09DCF84E0ED
:105A7000809312031092FA011092F901E091C6028C
:105A8000F091C70209958091F90181110FC081E061
:105A90008093F9011092D90109C0803C09F4A7CF85
:105AA000883C09F4A4CF883B09F07ECFE091FA014D
:105AB00081E08E0F8093FA01F0E0E752FE4F808183
:105AC00083B99091FA018091F90126C08091ED028D
:105AD00083B985EC86BF68CF90910F0380910E0348
